:020000020000FC
:100000000C94A8040C942A000C942A000C942A0046
:100010000C94D7010C942A000C942A000C942A000A
:100020000C942A000C942A000C942A000C942A00A8
:100030000C942A000C9429030C942A000C942A0096
:100040000C942A000C942A000C942A000C942A0088
:100050000C942A0018952E650D0017310E001F090B
:100060000F0001EE0F007FE0100067E1110097F133
:100070001200F61114007B4315002B8716001ADEC0
:1000800017006D4919005BCA1A0001010101010145
:100090000101010102020202020202020202020244
:1000A000020202020202020203040404040405051F
:1000B00005050606060606060708080809090A0ACD
:1000C0000A0A0B0C0C0C0C0D0E0F1011121213144B
:1000D00015161718191A1B1C1E2021222324262846
:1000E0002A2C2E30323436383A404244484C4F5253
:1000F00055585D6165686C70767E858A90969DA482
:10010000ABB0BAC4CED8E0E8F4FFFFFF0DC7C59A84
:100110005778915DC1489138FC2B3322971AAD1462
:100120001310800CB8098F07E00592048D03C302F9
:100130002602AB014C010201C9009C0079005E005F
:10014000490039002C0023001B00000001010101BF
:100150000101010101010202020202020203030382
:100160000303040404040404050505050606060645
:100170000606070707070707080808080808090907
:10018000090909090A0A0B0B0C0C0C0C0D0D0E0EBB
:100190000F0F101011111212131314141515161736
:1001A0001818191A1B1C1D1D1E1F20202121222278
:1001B0002324252526272828292A2B2C2D2D2E2FB0
:1001C00030303131323233343535363738383939E9
:1001D0003A3B3C3C3D3E3F40424344444546474712
:1001E00048494A4A4B4C4D4E4F5051525354555624
:1001F0005758595A5B5C5E5F60616264646566670C
:10020000686A6B6D6E6F7073737577787A7B7D7EBD
:100210007F808283858788898C8E9091939496982D
:100220009A9C9EA0A2A4A6A8ABAEB1B3B6B8BABB26
:10023000BDBFC1C3C6C9CCCED1D3D6D9DDE0E3E5BD
:10024000E8EBEEF0F2F4F6F9FCFF0000000000002D
:100250000000000000010101010202020303030487
:1002600004050505060607080809090A0A0B0C0C0F
:100270000D0E0F0F10111213131415161718191A4B
:100280001B1C1D1E1F2021222324252627282A2B44
:100290002C2D2E30313233353637383A3B3C3E3F09
:1002A000404243454647494A4C4D4F50515354569E
:1002B00057595A5C5D5F6062636567686A6B6D6E13
:1002C000707173757678797B7C7E80818384868774
:1002D000898A8C8E8F9192949597989A9C9D9FA0D5
:1002E000A2A3A5A6A8A9ABACAEAFB0B2B3B5B6B841
:1002F000B9BABCBDBFC0C1C3C4C5C7C8C9CACCCDCB
:10030000CECFD1D2D3D4D5D7D8D9DADBDCDDDEDF7E
:10031000E0E1E2E3E4E5E6E7E8E9EAEBECECEDEE68
:10032000EFF0F0F1F2F3F3F4F5F5F6F6F7F7F8F98C
:10033000F9FAFAFAFBFBFCFCFCFDFDFDFEFEFEFEFD
:10034000FFFFFFFFFFFFFFFFFFFF10E009E110BD10
:1003500009B908E00AB90EE800BD08955D9BFECF1B
:100360000CB908955F9BFECF0CB10895EAE9F4E162
:10037000C895002029F05D9BFECF0CB83196F8CFD0
:1003800008950F700A3008F0095F005D0E94AE0109
:1003900008950F9302950E94C1010F910E94C1011F
:1003A0000DE00E94AE010AE00E94AE0108950F9395
:1003B0000FB70F931F932F933F934F935F936F93B9
:1003C0007F93EF93FF930F921F92E0916E00E6FFF1
:1003D00015C03091D0002091D1001091D20030FB97
:1003E000889417952795379516F444EE1427309383
:1003F000D0002093D1001093D20021C0F091710061
:10040000142DF1FD0EC0E1FF0AC060E8F0FD60911F
:10041000C700161710F01FEF12C010E010C0F0FF59
:100420000EC0632D17FD609517FD1095660F111F07
:10043000F1FF05C0EAE4F2E0E10FF81D1491E0914C
:100440006E00F0917100072DF3FD0EC0E2FF0AC0AF
:1004500060E8F2FD6091C700061710F00FEF12C0C0
:1004600000E010C0F2FF0EC0662D07FD609507FD8D
:100470000095660F001FF3FF05C0EAE4F2E0E00F0D
:10048000F81D0491E0916E00E0FD1027E3FF00E805
:100490006091700060FD11C06091BE00105816039D
:1004A000F0016091BF0000580603E00DF11D0093BC
:1004B000C800F595E7958F0108C0105815950058AC
:1004C0000093C800059510028001780109191A09E6
:1004D00013F401E010E86091CD00492D5A2D3091C0
:1004E000CF002091CE00421B530B13F441E050E8A3
:1004F00020916F0023FF02C09A010FC056039001A4
:10050000469F210D381D001C08F423958894220F66
:10051000331F8894220F331F9901020F131F13F406
:100520000FEF1FE74091820020916F0023FD409163
:10053000830014039001049F210D381D001C08F452
:100540002395920EA31E23F42FEF3FE7922EA32EA6
:100550003A2D292DE091CE00F091CF002E1B3F0BBC
:1005600013F421E030E84091820020916F0023FDD8
:100570004091830034039001249F210D381DE20F28
:10058000F31F13F4EFEFFFE7E093CE00F093CF00FB
:100590000E2F1F2F20916F0023FF03C0E01AF10AD6
:1005A0008701E0E0F0E0209184002F3F49F4E02F44
:1005B000F12F08C015950795220F10F4E00FF11FD9
:1005C0002223C1F7929AF0589398F5BB9298929A89
:1005D000939AE5BB9298929AE1ECF0E00191200E9B
:1005E0000191301E0191401E0191500E0191601E3B
:1005F0000191701EE0916E00E6FD0C941A030091CB
:10060000C8001091C9001030A9F0010390010091B9
:10061000C10011273003110B210C311E411E009126
:10062000C2003003200C311C411E0091C300300376
:10063000300C411C1F900F90FF91EF917F916F91B3
:100640005F914F913F912F911F910F910FBF0F918C
:1006500018950F930FB70F930CB1579878941F9379
:100660000023F2F4102F107F103851F0103941F0B0
:10067000103B31F0103E21F010E01093600095C067
:10068000109360000F700395009361001091720049
:10069000112329F0101719F010E01093600085C0A5
:1006A00010916000103819F0113839F00AC0139514
:1006B000109360000093620078C01A951093600058
:1006C00010C0103919F0113939F03BC0139510934F
:1006D00060000093620069C01A95109360000023C7
:1006E000F9F40091620010916500011719F41FEFF1
:1006F0001093650010916400011749F41091650092
:100700001F3F31F0109364001FEF109365004DC040
:100710001FEF1093640010E010939700C69A45C035
:1007200000936300109164001093650010916200C3
:100730001093640011E01093970010939800C698EE
:1007400034C0103B19F0113B39F016C013951093CB
:1007500060000093620029C01A9510936000109108
:100760006200AF93BF93A3EDB0E0A10FB81D000FDF
:100770000C93BF91AF9119C0103E19F0113E39F0A2
:1007800014C0139510936000009362000EC01A9578
:100790001093600010916200110F110F001F00589C
:1007A000109366000093670000C01F910F910FBF68
:1007B0000F91579A18950F9302E30A95F1F70F914D
:1007C000089527B9369A0895349BFECF349A04B120
:1007D00015B116950795169507950895222331F0C2
:1007E0002F93159507952A95E1F72F9108954423A6
:1007F00041F04F9336952795179507954A95D1F770
:100800004F910895442341F04F93000F111F221F71
:10081000331F4A95D1F74F910895019F80010895A4
:10082000EF934427552788279927AA27BB27CC274A
:10083000DD270FC07695679530F4800F911FA21FBA
:10084000B31FC41FD51F000F111F221F331F441FCA
:10085000551FE62FE72B71F70A2F1B2F2C2F3D2F4B
:10086000EF910895EE0FF0E0BB96EE0FFF1F05919C
:1008700015912591359108956F937F93E72FF2DFBE
:10088000802F912FA22FB32FE72FE395EBDF081BCB
:10089000190B2A0B3B0B8F939F93AF93BF93762F2C
:1008A00060E04F93BDDF4F91BF91AF919F918F91CA
:1008B000080F191F2A1F3B1F7F916F91089540E079
:1008C00002C07C5043957C30E0F70895EE0FFF1F87
:1008D000E00FF81D04910895E00FF81DEE0FFF1FC3
:1008E000259134910895069506950695E5E8F0E082
:1008F000F3DF00271127089560E0702F703718F09C
:10090000703938F00CC000E010E221E0E0E0F0E0E7
:100910000BC008E011E220E0ECE8FFE605C007EBC1
:100920001DE121E0E7E6F2EE30E07ADF0E0F1F1F57
:100930000895E199FECF2FBB1EBB0DBBE29AE19A51
:100940000895E199FECF2FBB1EBBE09A0DB3089529
:10095000F89400913400006804BF04BF0FE518E06C
:100960000DBF1EBF8824222433244424552466242A
:1009700077249924AA2422273327EE27FF2705E08E
:100980000093C00000E00093C9000093CC000093E6
:1009900079000093970000939800009384000093DF
:1009A000A0000093A1000093A20000938600009392
:1009B0007E0000937F000093800000936600009308
:1009C00067000093D40002E0009381000FEF0093D2
:1009D00068000093690000938200009383000093F5
:1009E0006400009365000EE514EB26E70093AF006A
:1009F0001093B0002093B1000093D0001093D10069
:100A00002093D20000E010E020E00093B2001093A9
:100A1000B3002093B40027E10093B8001093B9000D
:100A20002093BA000FEF1FEF2FEF0093B500109344
:100A3000B6002093B70021EE0093BB001093BC00DA
:100A40002093BD0000E00093CB001093CA000093F8
:100A50006A000093A3000093A80000939F000093F6
:100A60007600009377000093740000E80093E300A1
:100A700004E50093730004E00093E20008E10093B2
:100A80006E0004E100936F0000E00093700000E04E
:100A90000093710000E800937A0000937B000093BC
:100AA0007C0000937D000FB720E010E04ADF009348
:100AB000BE00139546DF0093BF00139542DF0093FD
:100AC000760013953EDF0093770013953ADF00938D
:100AD0007800139536DF0093CC00139532DF009336
:100AE000790013952EDF0093C90013952ADF009338
:100AF0007500139526DF009373000FBF00E00BBB5A
:100B000000E00ABB0FEF08BB00E407BB00E005BB39
:100B10000FEF04BB0EEF02BB0EEF01BBC69A929A19
:100B2000939800E003BF04E00EBD01E303BD0AE0BB
:100B300005BD0E94A50106E806B900E809BF789442
:100B4000209186003EDE40DE20918600C7E8C20F7D
:100B5000D0E00883239535DE37DEC7E8C20FD0E04A
:100B6000088326E02EDE30DEC7E8C20FD0E008831F
:100B7000239527DE29DEC7E8C20FD0E0088322E0F4
:100B8000209386001EDE0091870000938F00009165
:100B900088000093900000918D00009395000091D3
:100BA0008E00009396000CB51DB50093990010932C
:100BB0009A000E94B6010091BE000E94C9010091F6
:100BC000BF000E94C901009176000E94C9010091F6
:100BD00077000E94C901009178000E94C90100912C
:100BE000CC000E94C901009179000E94C9010091C6
:100BF000C9000E94C901009175000E94C9010091BD
:100C000073000E94C9015D9BFECF00E000BD0FE1B3
:100C100009B900E90AB90CB51DB5209199003091C8
:100C20009A00021B130B0A56184108F49CC00CB51D
:100C30001DB50093990010939A0000E111E020E1A6
:100C400030E040E050E0E2B3E06FE027E2BBB3DD2C
:100C5000E6B3E0FD312BE1FD322BE2FD412BE3FD5C
:100C6000422BE4FF512B110F220F000F61F702B34B
:100C7000006F02BB30936B0040936C0050936D008B
:100C800000916B0010916C0020916E0030916F000C
:100C9000409170005091710017FB21F916FB41F94A
:100CA00015FB26F914FB40F907FB30F906FB51F957
:100CB00005FB50F904FB33F913FB22F912FB23F96E
:100CC00011FB27F910FB25F903FB31F902FB53F95E
:100CD00001FB52F900FB34F920936E0030936F0052
:100CE000409370005093710000916D00009372006A
:100CF0001091690010FF0AC034FF00E034FD01E0EC
:100D0000009368001127109369002DC034FF00E0A4
:100D100034FD01E010916800011709F424C000932C
:100D2000680034FD07C001E00093CA0000E00093B2
:100D3000CB0006C000E00093CA0006E00093CB00A1
:100D4000002700936A000091870000938F000091B4
:100D500088000093900000918D0000939500009111
:100D60008E00009396000091CA0007FD4DC0E199E6
:100D70004BC000FD14C00091CB00063039F00730A5
:100D800041F0083049F01091730026C010917900AD
:100D900023C01091C90020C0109175001DC00091A2
:100DA000CB00003059F0013061F0023069F00330BF
:100DB00071F0043079F01091CC000EC01091BE009B
:100DC0000BC01091BF0008C01091760005C01091B3
:100DD000770002C01091780030E03FBB0EBB1DBB16
:100DE0001FB7F894E29AE19A1FBF7894053031F06A
:100DF000093021F003950093CB0006C010E010935A
:100E0000CB001FEF1093CA00DFDC20918600C7E8FB
:100E1000C20FD0E008832395277020938600D1DC91
:100E200030916F0020916A0034FD0C945B070091B3
:100E3000870020FD0C942507302F10918F00311B67
:100E40000AF43195353018F0216000937300009159
:100E5000880021FD0C943507302F10919000311B34
:100E60000AF43195353028F0226000937400009325
:100E7000750000918D0026FD0C944707302F1091CE
:100E80009500311B0AF43195353018F02064009339
:100E9000C90000918E0027FD0C945707302F109148
:100EA0009600311B0AF43195353018F02068009314
:100EB00079000C94AE070091870020FD0C9469071F
:100EC000302F10918F00311B0AF43195353030F0FE
:100ED0002160063F08F006EF0093CC0000918800E7
:100EE00021FD0C947C07302F10919000311B0AF4E7
:100EF0003195353018F022600093780000918D0014
:100F000026FD0C948C07302F10919500311B0AF4AC
:100F10003195353038F02064EFDC105800937600BE
:100F20001093770000918E0027FD0C94A007302FBE
:100F300010919600311B0AF43195353078F0206815
:100F40000695069510E4101B123008F410E010937B
:100F5000BE00023008F400E00093BF000091890059
:100F600000937D0000918A0023FD0C94C007302F70
:100F700010919200311B0AF43195353030F0246025
:100F8000E5EAF0E0A3DC00937C0000918B00009385
:100F90007B0000918C0000937A0020936A002091DE
:100FA000CC00009182001FEF101B169534E0130F48
:100FB000211B08F420E02093CD006CB57DB5262FD1
:100FC000372F00919B0010919C00601B710B2093A8
:100FD0009B0030939C0060939D0070939E00009155
:100FE0007300009580DC60919D0070919E0018DC7C
:100FF0003091A4004091A5005091A6005058F0E017
:10100000E091A300EE23A1F46091B5007091B600C9
:101010008091B700300F411F521F20F0361747074D
:101020005807C8F0362F472F582FE1E0F1E013C0E2
:101030006091B2007091B3008091B400301B410BFD
:10104000520B20F063177407850728F0362F472FBF
:10105000582FE0E0F1E0E093A30050583093A40053
:101060004093A5005093A60000E010E020E0E0913E
:101070006F00E278E03849F4FF23B1F00091AF004F
:101080001091B0002091B1002F770093B20010931F
:10109000B3002093B4000095109520950093B500FF
:1010A0001093B6002093B70000916F0002780238C9
:1010B00029F4FF2361F05091B10007C000916F0047
:1010C000027019F0550F5FE7581D5093A70000916B
:1010D0006F00007249F0009175001091D400011763
:1010E00008F4012F009374000091E2000095FBDBEF
:1010F00060919D0070919E0093DB3091A90040911A
:10110000AA005091AB005058F0E0E091A800EE2307
:10111000A1F46091BB007091BC008091BD00300FC4
:10112000411F521F20F0361747075807C8F0362FC7
:10113000472F582FE1E0F1E013C06091B8007091A3
:10114000B9008091BA00301B410B520B20F063179D
:101150007407850728F0362F472F582FE0E0F1E07D
:10116000E093A80050583093A9004093AA005093F0
:10117000AB006091E1005603512D50586091700012
:1011800061FF5091E1005093C70010919F000091C2
:101190007A00113049F000917B00123029F0009163
:1011A0007D00143009F038C09EDB60919D00709185
:1011B0009E0036DB3091A0004091A1005091A2002A
:1011C00060919F006430C1F0623049F0300F411FE0
:1011D000521FE0F43FEF4FEF5FEF02E015C0301B0E
:1011E000410B520B68F060917C00651778F003E0CA
:1011F00033274427562F08C0301B410B520B30F4C5
:1012000030E040E050E000E000939F003093A00009
:101210004093A1005093A20000919700002321F475
:1012200004E000939F002EC000919800002351F12C
:1012300000E000939800902EA02E0093CE00009323
:10124000CF0000918100002319F00A9500938100DE
:1012500001E000939F0000E00093A0000093A10034
:101260000093A20000916F0006FF0CC00FEF1FEF6C
:101270002FE70093A4001093A5002093A60001E09F
:101280000093A30090E060E0709164007F3F11F450
:101290009CC07C507136E8F701C0745F7432E8F38B
:1012A0007C5090917E00A0917F00B09180000091D1
:1012B0008100002381F50091790015DB6F937F9306
:1012C000622F732F00E010E020919D0030919E006E
:1012D00043E08DDAA5DA7F916F91302F412F522FA5
:1012E00090917E00A0917F00B09180006A177B07EB
:1012F00038F4931BA40BB50B6A177B0750F006C09C
:10130000930FA41FB51F6A177B0718F490E0A62F50
:10131000B72F6A2F7B2F90937E0060937F0070938E
:10132000800000916E0005FF7C50009166001091D6
:10133000670025E053DA202F312F020F131F020F11
:10134000131F600F711F7093850000916F0000FFE5
:101350000C94C3090091A70010917400212F1695D9
:10136000203810F01058120F0102800124E036DA04
:10137000600F711F77231AF460E070E004C07D36BF
:1013800010F060E07CE66F937F9399DA75DA3ADAD1
:101390001093C1002093C2003093C3007F916F91DE
:1013A000009176001091770024E018DA600F711F29
:1013B00000916E0007FD745F82DA5EDA23DA109323
:1013C000C4002093C5003093C600E0E0F0E0009137
:1013D0006F0000FD0C94F4090091A70010917400B7
:1013E0000103E12DF0E0FF0B0091E30000581091A4
:1013F000A2000103800120E0220B001FE11FF21F69
:1014000000916F00047061F000918500000F00569C
:101410001BEA0102800120E017FD2FEFE10FF21F10
:101420000091780011270E0F1F1F112312F400E006
:1014300002C009F00FEF0695E5E4F0E047DA00930B
:1014400082000A5008F400E00093830010916E00BF
:10145000107131F400919700079500E0000B05C072
:101460000091A200E5EAF0E031DA009384000091F7
:10147000AF001091B0002091B10027FB30F922FBA2
:1014800040F934273695001F111F221F0093AF002B
:101490001093B0002093B100BECB0D0A0D0A617607
:1014A0007253796E74682028632941576520323061
:1014B00031310D0A2020206275696C642044656317
:1014C00020303220323031312031383A32303A3324
:0414D000320D0A00CF
:00000001FF
