:020000020000FC
:100000000C94E2050C942A000C942A000C942A000B
:100010000C94A5010C942A000C942A000C942A003C
:100020000C942A000C942A000C942A000C942A00A8
:100030000C942A000C94DF020C942A000C942A00E1
:100040000C942A000C942A000C942A000C942A0088
:100050000C942A00189519BC0E00669C0F00098AA2
:100060001000CE8511008B90120025AB13008DD6A9
:100070001400C2131600D4631700E3C718001D4113
:100080001A00C5D01B0031781D00010101010101DA
:100090000101010202020202020202020202020342
:1000A0000303030303030404040404040505050512
:1000B000050606060607070708080809090A0A0AC6
:1000C0000B0B0C0C0D0D0E0F0F101111121314153C
:1000D000161718191A1B1C1D1F2021232426282936
:1000E0002B2D2F313436383B3D404346494C4F533E
:1000F000575B5F63676C70757B80868C92989FA658
:10010000ADB5BDC5CED7E1EBF5FF0DC7C59A5778A4
:10011000915DC1489138FC2B3322971AAD1413100E
:10012000800CB8098F07E00592048D03C3022602F4
:10013000AB014C010201C9009C0079005E0049003E
:1001400039002C0023001B001300000000010101F6
:100150000101020202020303030303040404040571
:100160000505050606060607070707080808080923
:100170000909090A0A0A0B0B0B0B0C0C0C0D0D0DCF
:100180000E0E0E0F0F0F101010111112121213136A
:1001900014141415151616171717181819191A1AF2
:1001A0001B1B1C1C1D1D1E1E1F1F20212122222364
:1001B000232425252627272829292A2B2B2C2D2DBA
:1001C0002E2F303031323333343536373838393AF0
:1001D0003B3C3D3E3F3F4041424344454647484902
:1001E0004A4B4C4D4E5051525354555657595A5BE9
:1001F0005C5D5F60616264656668696A6C6D6E70A3
:100200007173747677787A7B7D7E80828385868829
:100210008A8B8D8E9092949597999A9C9EA0A2A479
:10022000A5A7A9ABADAFB1B3B5B7B9BBBDBFC1C38E
:10023000C5C7C9CBCED0D2D4D6D9DBDDE0E2E4E766
:10024000E9EBEEF0F3F5F7FAFCFF00000101010124
:10025000020202030303030404040505050606065F
:100260000607070708080809090A0A0A0B0B0B0CFE
:100270000C0C0D0D0E0E0E0F0F101010111112128E
:100280001313131414151516161717181819191A0D
:100290001A1B1B1C1C1D1E1E1F1F20202122222377
:1002A000232425252627272829292A2B2B2C2D2DC9
:1002B0002E2F303031323333343536373738393A00
:1002C0003B3C3C3D3E3F4040404040404040404140
:1002D0004243444546474748494A4B4C4D4E50518E
:1002E00052535455565758595A5C5D5E5F6061636E
:1002F00064656667696A6B6D6E6F7072737476772A
:10030000797A7B7D7E808183848687898A8C8D8FB4
:100310009092939597989A9C9D9FA1A2A4A6A7A915
:10032000ABADAFB0B2B4B6B8BABBBDBFC1C3C5C741
:10033000C9CBCDCFD1D3D5D7D9DBDEE0E2E4E6E837
:10034000EBEDEFF1F3F6F8FAFDFF0F930FB70F9314
:100350001F932F933F934F935F936F937F93EF93ED
:10036000FF930F921F92509177007091780075FF64
:1003700015C03091D8002091D9001091DA0030FBDF
:10038000889417952795379516F444EE14273093E3
:10039000D8002093D9001093DA002EC0142D77FFD7
:1003A00022C076FF4091D00076FD4091CF00609151
:1003B000CD00EAEBF8E1E10FF61FC895042F010F1D
:1003C000102DEAEBF8E1E00FF61FC8950027101991
:1003D0000A09140F0A1D14F410E000E0002309F0CC
:1003E0001FEF105809C0142D6091CD00EAEBF8E121
:1003F000E10FF61F149110586091CE00072D73FF86
:1004000006C0EAEBF4E2E00FF61F049105C0EAEB48
:10041000F0E3E00FF61F0491005855FD102772FF1E
:1004200000E06091790062FD11C06091C400160384
:10043000F0016091C50072FF012F0603E00DF11D70
:100440008F0115950795159507950CC06091C4000F
:100450001603112D6091C5000603012D10028001C5
:10046000000F111F78010819190913F401E010E8B1
:100470006091D500482D592D3091D7002091D6009C
:10048000421B530B13F441E050E82091770024FF06
:1004900002C09A010FC056039001469F210D3A1DDC
:1004A000001C08F423958894220F331F8894220F90
:1004B000331F9901020F131F13F40FEF1FE7409131
:1004C00083002091770024FD409184001403900163
:1004D000049F210D3A1D001C08F42395820E931EE3
:1004E00023F42FEF3FE7822E932E392D282DE09114
:1004F000D600F091D7002E1B3F0B13F421E030E81B
:10050000409183002091770024FD409184003403C2
:100510009001249F210D3A1DE20FF31F13F4EFEF1A
:10052000FFE7E093D600F093D7000E2F1F2F209106
:10053000770024FF03C0E01AF10A8701F801209137
:1005400085002F3F29F01203F001029FE10DFA1DF3
:100550008F0120916001203459F01203F001029FB5
:10056000E10DFA1D000CEE1FFF1F000CEE1FFF1F18
:10057000939AF0589298F5BB9398939A929AE5BB08
:100580009398939AE7ECF0E00191200E0191301ED0
:100590000191401E0191500E0191601E0191701E4B
:1005A0001F900F90FF91EF917F916F915F914F910D
:1005B0003F912F911F910F910FBF0F9118950F939E
:1005C0000FB70F930CB1579878941F930023F2F450
:1005D000102F107F103851F0103941F0103B31F0DE
:1005E000103E21F010E0109360008EC11093600067
:1005F0000F7003950093610010917C00112329F086
:10060000101719F010E0109360007EC11091600087
:10061000103819F0113839F00AC0139510936000A2
:100620000093620071C11A951093600010C01039D8
:1006300019F0113939F03BC0139510936000009305
:10064000620062C11A95109360000023F9F40091D2
:10065000620010916500011719F41FEF10936500F7
:1006600010916400011749F4109165001F3F31F0AB
:10067000109364001FEF1093650046C11FEF1093A5
:10068000640010E010939900919A3EC100936300BA
:100690001091640010936500109162001093640043
:1006A00011E01093990010939A0091982DC1103B7E
:1006B00019F0113B39F00FC11395109360000093AE
:1006C000620022C11A951093600010916200AF93EE
:1006D000BF93103330F0103430F01035E8F010369E
:1006E00008F0B5C069C0ABEDB0E0A10FBA1D000FB6
:1006F0000C9310531770A9E8B0E0A10FBA1D0C912C
:10070000A1E9B0E0A10FBA1D0C93ABE6B0E0A10FD8
:10071000BA1D10E01C93DCC01054183048F117705B
:10072000A091780006FB103011F4A0F91EC0113022
:1007300011F4A1F91AC0123011F4A2F916C0133045
:1007400011F4A3F912C0143039F4A4F9B0915F0187
:10075000B360B0935F0109C0153011F4A5F905C06D
:10076000163011F4A6F901C0A7F9A0937800B0C023
:100770001770A091770006FB103011F4A0F919C092
:10078000113011F4A1F915C0123011F4A2F911C001
:10079000133011F4A3F90DC0143011F4A4F909C0F9
:1007A000153011F4A5F905C0163011F4A6F901C0F1
:1007B000A7F9A09377008CC01055183020F117705E
:1007C000A0917A0006FB103011F4A0F919C0113085
:1007D00011F4A1F915C0123011F4A2F911C01330AF
:1007E00011F4A3F90DC0143011F4A4F909C01530A7
:1007F00011F4A5F905C0163011F4A6F901C0A7F946
:10080000A0937A0065C01770A091790006FB1030A4
:1008100011F4A0F919C0113011F4A1F915C012306A
:1008200011F4A2F911C0133011F4A3F90DC0143062
:1008300011F4A4F909C0153011F4A5F905C016305A
:1008400011F4A6F901C0A7F9A093790041C0ABED5E
:10085000B0E0A10FBA1D000F0C93163110F169F032
:100860001A3128F031F01E3198F512E009C014E079
:1008700007C00093160113E003C00093180115E0B0
:10088000A9E8B0E0A10FBA1D0C91A1E9B0E0A10F59
:10089000BA1D0C93ABE6B0E0A10FBA1D10E01C939B
:1008A00017C0153139F40F9300915F010460009374
:1008B0005F010F91143161F41EEF101B123008F428
:1008C00010E01093C400023008F400E00093C5006B
:1008D000BF91AF9119C0103E19F0113E39F014C00C
:1008E000139510936000009362000EC01A95109348
:1008F000600010916200110F110F001F005810933B
:1009000066000093670000C01F910F910FBF0F9109
:10091000579A18950F9302E30A95F1F70F910895EE
:1009200027B9369A0895349BFECF349A04B115B195
:1009300016950795169507950895222331F02F9364
:10094000159507952A95E1F72F910895442341F0D5
:100950004F9336952795179507954A95D1F74F915F
:100960000895442341F04F93000F111F221F331F9E
:100970004A95D1F74F910895019F80010895379FBF
:10098000E001279FA001179FD001079F902DA10D87
:10099000B41FC51FDA1D369FA001169F900DA11D23
:1009A000B41FC51FDA1D269FA001069F802D910D43
:1009B000A41FB51FCA1DDA1D0A2F1B2F2C2F3D2F78
:1009C0000895EE0FF0E0BB96EE0FFF1F0591159115
:1009D0002591359108956F937F93E72FF2DF802F54
:1009E000912FA22FB32FE72FE395EBDF081B190BF5
:1009F0002A0B3B0B8F939F93AF93BF93762F60E0AF
:100A00004F93BDDF4F91BF91AF919F918F91080F91
:100A1000191F2A1F3B1F7F916F91089540E002C06C
:100A20007C5043957C30E0F70895EE0FFF1FE00FF8
:100A3000FA1D04910895E00FFA1DEE0FFF1F259196
:100A400034910895069506950695E5E8F0E0F3DF04
:100A500000271127089560E0702F703718F0703963
:100A600038F00CC000E010E221E0E0E0F0E00BC064
:100A700008E011E220E0ECE8FFE605C007EB1DE12D
:100A800021E0E7E6F2EE30E07ADF0E0F1F1F089557
:100A9000E199FECFBFB6F8942FBB1EBB0DBBE29A07
:100AA000E19ABFBE0895E199FECFBFB6F8942FBB7F
:100AB0001EBBE09A0DB3BFBE0895002700936B00E4
:100AC00000936C0000936D0000936E0000936F0024
:100AD00000937000009371000093720000918900F0
:100AE0000093910000918A000093920000918B0086
:100AF0000093930000918C000093940000918D006E
:100B00000093950000918E000093960000918F0055
:100B10000093970000919000009398000895000FB3
:100B2000000F000F000F102F20E0110F221F100FD9
:100B30002A1D30E3303409F43EE03E3109F43CE252
:100B4000B2DFCBEDD0E0C30FDA1D088313952A1D69
:100B50003395303379F700910701009377000091C6
:100B60000801009378000091090100937900009139
:100B70000A0100937A0000917300009375000091C0
:100B800074000093760099DF0895CBE6D0E0C40F9F
:100B9000DA1D288120FD14C0302FC1E9D0E0C40F38
:100BA000DA1D1881311B0AF43195333038F0216099
:100BB000CBE6D0E0C40FDA1D288302C010E0089510
:100BC00011E00895F89400913400006804BF04BF58
:100BD0000FE518E00DBF1EBFAA24222433244424AD
:100BE0005524662477248824992422273327EE2746
:100BF000FF2705E00093C60000E000935B0100932F
:100C00005C0100935D0100935E0100937C00009302
:100C10007B0000935F0100930B0100931001009390
:100C20007C000093990000939A0000938500009344
:100C3000A2000093A3000093A4000093A6000093D9
:100C4000A7000093A8000093870000937F00009303
:100C5000800000938100009366000093670000937A
:100C6000DC000093690002E0009382000FEF009324
:100C70006A000093D10000938300009384000093E6
:100C80006400009365000EE514EB26E70093B500C1
:100C90001093B6002093B7000093D8001093D900AA
:100CA0002093DA0000E010E020E00093B8001093F9
:100CB000B9002093BA000093BE001093BF002093A8
:100CC000C0000FEF1FEF2FEF0093BB001093BC008D
:100CD0002093BD000093C1001093C2002093C30075
:100CE00000E00093A9000093AE000093A1000093E0
:100CF000A50000937D0000937E00009368000FE73D
:100D00000093C4000093C50000E80093F00000E4E5
:100D10000093600104E00093ED0000E80093E90017
:100D200000E00093F5000093F8000093F1000093B9
:100D3000F40000E80093F6000093F7000093F3003E
:100D40000093F20008EF009379000093090100E09E
:100D500000937A0000930A0100E00BBB00E00ABB9D
:100D60000FEF08BB00E007BB00E005BB0FEF04BBC3
:100D70000CEF02BB0EEF01BB919A939A929800E0A0
:100D800003BF04E00EBD06E303BD0AE005BD00E0BD
:100D900000BD0FE109B900E90AB906E806B900E8A3
:100DA00009BF789420918700BBDDC9E8D0E0C20F6D
:100DB000DA1DB9DD08832395B3DDC395B4DD08835F
:100DC0002395AEDDC395AFDD08832395A9DDC395DB
:100DD000AADD08832395A4DDC395A5DD08832395AB
:100DE0009FDDC395A0DD088323959ADDC3959BDD28
:100DF0000883239595DDC39596DD088320E0209335
:100E000087008EDD23E01EEF4EDE89DE23E01FEF3C
:100E10004ADE00937C000CB51DB500939B00109337
:100E20009C000CB51DB520919B0030919C00021BCD
:100E3000130B0A56184108F454C100917B0000239B
:100E400069F010915D01112321F0011711F0006884
:100E5000012B00935D010FE300935C0100915D01A4
:100E60000023E9F010E4007809F010E800915B013C
:100E7000010F003830F010915C011A9541F0919A01
:100E80000AC010915C011A9511F0919804C0919AD2
:100E900000E000935D0100935B0110935C010CB5D1
:100EA0001DB500939B0010939C0000E111E020E130
:100EB00030E040E050E0E2B3E06FE027E2BB2ADD43
:100EC000E6B3E0FF312BE1FF322BE2FF412BE3FFE2
:100ED000422BE4FF512B110F220F000F61F702B3D9
:100EE000006F02BB309373004093740050937B00FB
:100EF00010916A0010FF07C0309375004093760090
:100F0000112710936A00209177003091780040916A
:100F1000790050917A0000917300109175000117CB
:100F200089F100937500EE27102710FF06C000FB23
:100F300020F90F93C2DD0F91E0E111FF03C001FB27
:100F400043F9EFE012FF03C002FB22F9EEE013FFCA
:100F500003C003FB23F9EDE014FF03C004FB24F9F5
:100F6000E8E015FF03C005FB25F9E7E016FF03C025
:100F700006FB26F9E6E017FF03C007FB27F9E5E0CB
:100F8000E0935E010091740010917600011799F1D1
:100F900000937600EE27102710FF03C000FB42F9F4
:100FA000ECE011FF03C001FB31F9EBE012FF03C0DD
:100FB00002FB32F9EAE013FF03C003FB33F9E9E077
:100FC00014FF08C004FB34F9E4E060915F01636042
:100FD00060935F0115FF03C005FB35F9E3E016FFE1
:100FE00003C006FB36F9E2E017FF03C007FB37F941
:100FF000E1E0E0935E0110915D01123041F0209339
:101000007700309378004093790050937A001091E4
:101010005D011123B9F000915E01002399F01130B8
:1010200091F01230A1F01F77133071F0153069F094
:10103000163061F0143031F40A9523E01EEF28DDFC
:101040006EDD45C04EC036C040C041C040C001301A
:1010500021F41FEF1093D1003AC01091D100112359
:10106000B1F10A9523E01EEF13DD10E01093D100DB
:101070001093D200000F000F000F000F102F20E080
:10108000110F221F100F2A1D1093D3002093D4009C
:101090000091770000930701009178000093080108
:1010A000009179000093090100917A0000930A01F0
:1010B00004DD0DC00395013109F401E00A950093A8
:1010C0007C0023E01FEFE4DC02C0013001F4919AC0
:1010D00000E000935D0100935B0100935C010093CD
:1010E0005E0160915F016623E1F160FBB6F400915F
:1010F00015013091780034FF08C03FEF3093F700BE
:101100003093F6000093F80007C030E03093F7000A
:101110000093F6000093F8006E7F61FBB6F4009137
:1011200017013091780034FF08C03FEF3093F3008F
:101130003093F2000093F40007C030E03093F300E6
:101140000093F2000093F4006D7F62FB46F400917F
:10115000F000E5E2F1E069DC009360016B7F6093F1
:101160005F010091D10007FD28C0E19926C02091C0
:10117000D20010E3203120F01EEF203208F01CE0F6
:10118000120FCBEDD0E0C10FDA1D18810091D30012
:101190003091D400020F3A1D3FBB0EBB1DBBBFB642
:1011A000F894E29AE19ABFBE233221F0239520936E
:1011B000D20003C01FEF1093D100B5DB2091870050
:1011C00020938800C9E8D0E0C20FDA1D0883239578
:1011D000277020938700A4DB40918800403031F4D1
:1011E000D4DC112311F000930B0181C0413031F4A4
:1011F000CCDC112319F100930C0179C0463079F44D
:10120000C4DC112311F00093110100911101069526
:10121000043008F001C004E00093D00068C04730FB
:1012200071F4B3DC112311F000931201009112014B
:1012300012DC105800937D0010937E0058C030914E
:10124000770030FD0C944A09423031F49EDC1123C2
:1012500001F100930D014BC0433041F496DC1123A2
:10126000C1F00093680000930E0141C0443031F496
:101270008CDC112371F000930F0139C0453049F423
:1012800084DC112331F00695102F1695010F009381
:1012900010012DC0423059F478DC112341F1009344
:1012A000150100915F01016000935F0120C0433090
:1012B00041F46BDC1123D9F0009316010093F50083
:1012C00016C0443059F461DC112389F000931701F2
:1012D00000915F01026000935F0109C0453039F45D
:1012E00054DC112321F0009318010093F1006CB538
:1012F0007DB5262F372F00919D0010919E00601B19
:10130000710B20939D0030939E0060939F0070931B
:10131000A00000910D01009595DB60919F007091F8
:10132000A0002DDB3091AA004091AB005091AC00A1
:101330005058F0E0E091A900EE23A1F46091BB00C9
:101340007091BC008091BD00300F411F521F20F0F2
:10135000361747075807C8F0362F472F582FE1E0B8
:10136000F1E013C06091B8007091B9008091BA00AB
:10137000301B410B520B20F063177407850728F0D0
:10138000362F472F582FE0E0F1E0E093A9005058A6
:101390003093AA004093AB005093AC0000E010E003
:1013A00020E0E0917700E2FF09C0FF23B1F0009157
:1013B000B5001091B6002091B7002F770093B800C8
:1013C0001093B9002093BA000095109520950093D2
:1013D000BB001093BC002093BD000091770002FF7A
:1013E00005C0FF2361F05091B70007C0009177005E
:1013F00003FF03C0550F5FE75A1D5093AD000091E6
:10140000790005FF09C000910E011091DC00011761
:1014100008F4012F009368000091110106950695CC
:10142000009510DB60919F007091A000A8DA3091C8
:10143000AF004091B0005091B1005058F0E0E09101
:10144000AE00EE23A1F46091C1007091C2008091C2
:10145000C300300F411F521F20F0361747075807AF
:10146000C8F0362F472F582FE1E0F1E013C060910C
:10147000BE007091BF008091C000301B410B520B29
:1014800020F063177407850728F0362F472F582F51
:10149000E0E0F1E0E093AE0050583093AF004093AD
:1014A000B0005093B1006091E9005603512D50589F
:1014B0005093CF001091A10000911801113069F0F4
:1014C0000091F200123049F00091F400143029F03C
:1014D0006091F300133039F13AC0B4DA60919F00A3
:1014E0007091A0004CDA3091A2004091A30050917D
:1014F000A4006091A1006430D1F0623049F0300F57
:10150000411F521FF0F43FEF4FEF5FEF02E017C0B3
:10151000301B410B520B78F06091F300651788F097
:1015200003E00093A10033274427562F0AC0301B45
:10153000410B520B30F430E040E050E000E000930B
:10154000A1003093A2004093A3005093A4001091F7
:10155000A50000911601113069F00091F6001230DB
:1015600049F00091F800143029F06091F700133031
:1015700039F13AC067DA60919F007091A000FFD9FD
:101580003091A6004091A7005091A8006091A5005D
:101590006430D1F0623049F0300F411F521FF0F437
:1015A0003FEF4FEF5FEF02E017C0301B410B520BD4
:1015B00078F06091F700651788F003E00093A500CC
:1015C00033274427562F0AC0301B410B520B30F4EF
:1015D00030E040E050E000E00093A5003093A6002A
:1015E0004093A7005093A80000919900002331F484
:1015F00004E00093A1000093A5002BC000919A0085
:10160000002339F100E000939A000091820000234A
:1016100019F00A950093820001E00093A100009365
:10162000A5000091790006FF14C00FEF1FEF2FE710
:101630000093AA001093AB002093AC000093AF007E
:101640001093B0002093B10001E00093A900009333
:10165000AE0090E060E0709164007F3F11F4B2C092
:101660007C507136E8F701C0745F7432E8F37C5047
:1016700090917F00A0918000B09181000091820044
:10168000002381F500911001DDD96F937F93622FC4
:10169000732F00E010E020919F003091A00043E004
:1016A00055D96DD97F916F91302F412F522F909145
:1016B0007F00A0918000B09181006A177B0738F409
:1016C000931BA40BB50B6A177B0750F006C0930F52
:1016D000A41FB51F6A177B0718F490E0A62FB72F39
:1016E0006A2F7B2F90937F0060938000709381001E
:1016F0000091790003FF7C50009166001091670013
:1017000025E01BD9202F312F020F131F020F131FAB
:10171000600F711F709386000091770007FF0C9493
:10172000AE0B0091AD00109168002091770026FF6C
:1017300010E0212F1695203810F01058120F0103D9
:10174000800124E0FAD8600F711F77231AF460E05B
:1017500070E004C07D3610F060E07CE66F937F930C
:10176000972F9D5008F49927969596959695909366
:10177000CD0054D930D9F5D81093C7002093C800B4
:101780003093C9007F916F9100917D0010917E0090
:1017900024E0D3D8600F711F0091780001FD745FC1
:1017A000972F9D5008F49927969596959695909326
:1017B000CE0034D910D9D5D81093CA002093CB00CD
:1017C0003093CC00E0E0F0E00091770007FD0C944E
:1017D000F60B0091AD00109168002091770026FF74
:1017E00010E00103E12DF0E0111CFF0B00910F014F
:1017F00000581091A8000103800120E0220B001F77
:10180000E11FF21F0091790007FF0CC000918600D4
:10181000000F00561BEA0103800120E017FD2FEFA7
:10182000E10FF21F00910C0111270E0F1F1F112352
:1018300012F400E002C009F00FEF0695E5E4F0E0D5
:10184000F4D8009383000A5008F400E00093840069
:1018500020910B01009183001FEF101B169538E1BA
:10186000130F211B08F420E02093D500109179007C
:1018700014FD06C000919900079500E0000B05C01B
:101880000091A400E5EAF0E0D0D800938500009133
:10189000B5001091B6002091B70027FB30F922FB6C
:1018A00040F934273695001F111F221F0093B50001
:1018B0001093B6002093B700B4CA80121115161603
:1018C000161819191A1B1C1D1E1F20202122232443
:1018D0002526272728292A2B2C2D2D2E2F30313253
:1018E00033343435363738393A3A3B3C3D3E3F4065
:1018F00041414243444546474748494A4B4C4D4D78
:101900004E4F5051525353545556575859595A5B8C
:101910005C5D5E5F6060616263646566666768699E
:101920006A6B6C6D6D6E6F707172737374757677B0
:1019300078797A7A7B7C7D7E7F80808081828384C7
:101940008586868788898A8B8C8D8D8E8F909192E3
:1019500093939495969798999A9A9B9C9D9E9FA0F5
:10196000A0A1A2A3A4A5A6A7A7A8A9AAABACADAD08
:10197000AEAFB0B1B2B3B3B4B5B6B7B8B9B9BABB1C
:10198000BCBDBEBFBFC0C1C2C3C4C5C6C6C7C8C92F
:10199000CACBCCCCCDCECFD0D1D2D3D3D4D5D6D741
:1019A000D8D9D9DADBDCDDDEDFE0E0E1E2E3E4E553
:1019B000E6E7E7E8EAEAEAEBEFEE80111015171523
:1019C000161919191A1C1C1D1E1F1F202222232440
:1019D0002526262728292A2B2C2C2D2E2F30313254
:1019E0003333343536373839393A3B3C3D3E3F4066
:1019F00040414243444546464748494A4B4C4C4D7A
:101A00004E4F5051525353545556575859595A5B8B
:101A10005C5D5E5F6060616263646566666768699D
:101A20006A6B6C6D6D6E6F707172737374757677AF
:101A300078797A7A7B7C7D7E7F80808081828384C6
:101A40008586868788898A8B8C8D8D8E8F909192E2
:101A500093939495969798999A9A9B9C9D9E9FA0F4
:101A6000A0A1A2A3A4A5A6A7A7A8A9AAABACADAD07
:101A7000AEAFB0B1B2B3B4B4B5B6B7B8B9BABABB19
:101A8000BCBDBEBFC0C0C1C2C3C4C5C6C7C7C8C92C
:101A9000CACBCCCDCDCECFD0D1D2D3D4D4D5D6D73E
:101AA000D8D9DADADBDCDDDEDEE0E1E1E2E3E4E452
:101AB000E6E7E7E7EAEBE9EBF0EF801C1614141415
:101AC0001516181A1B1C1D1D1E1E1F202122232443
:101AD000252627272829292A2B2C2D2E2F30313255
:101AE00032333435363738393A3A3B3C3D3E3E3F67
:101AF00040414243444546464748494A4B4C4D4D78
:101B00004E4F5051525253545556575859595A5B8B
:101B10005C5D5E5F6061616263646565666768699C
:101B20006A6B6C6D6D6E6F707172737474757677AD
:101B30007879797A7B7C7D7E7F80808081828384C6
:101B40008586878788898A8B8C8C8D8E8F909192E1
:101B500093939495969798999A9B9B9C9D9E9F9FF3
:101B6000A0A1A2A3A4A5A6A7A7A8A9AAABACADAE05
:101B7000AEAFB0B1B2B3B3B4B5B6B7B8B9BABABB19
:101B8000BCBDBEBFC0C1C2C2C3C4C5C6C6C7C8C92A
:101B9000CACBCCCDCECECFD0D1D2D3D4D5D6D7D739
:101BA000D8D9D9DADBDCDDDEDFE0E1E2E2E3E3E451
:101BB000E5E6E8EAEBECECECEAE4800A0F1A151330
:101BC0001919171A1C1A1C1E1D1E2120212323233C
:101BD0002526262829292A2C2C2C2E2E2F3031314F
:101BE00033343435373738393A3A3C3C3D3E3F3F61
:101BF00041424243444546474748494A4B4C4D4D74
:101C00004E5050515253535555565758595A5B5B85
:101C10005C5D5E5F60616162636465666667696999
:101C20006A6B6C6C6E6E6F707172737474757677AC
:101C300078797A7A7B7C7D7E7F7F808181828384C4
:101C40008586868788898A8B8C8C8D8E8F909192E1
:101C500092949495969797999A9A9B9C9D9E9F9FF4
:101C6000A0A1A2A3A4A5A5A6A7A8A9AAABABADAD08
:101C7000AEAFB0B0B2B3B3B4B5B6B7B8B9B9BABB1A
:101C8000BCBDBEBEBFC1C1C2C3C4C4C6C6C7C8C92D
:101C9000C9CBCCCCCDCFCFD0D1D2D2D4D4D4D6D73F
:101CA000D7D8DADADBDDDDDDDFE0DFE2E3E2E4E650
:101CB000E4E6E9E7E7EDEBE6F1F680011B13151921
:101CC000141C161C191C1D1C201D211F222223253B
:101CD0002427262828292B2A2D2C2E2E303031324D
:101CE00032343436363738383A3A3C3C3D3E3F4061
:101CF000404242434445464648484A4A4B4C4C4E73
:101D00004E5050515253545456565758595A5A5C83
:101D10005C5D5E5F60606262636465666668686A97
:101D20006A6B6C6D6E6E70707172737474767677A8
:101D300078797A7A7C7C7D7E7F80808081828384C2
:101D40008486868788898A8A8C8C8D8E8F909092E3
:101D500092939495969698989A9A9B9C9D9E9EA0F5
:101D6000A0A1A2A3A4A4A6A6A7A8A9AAAAACACAD08
:101D7000AEAFB0B0B2B2B4B4B5B6B6B8B8BABABB1A
:101D8000BCBDBEBEC0C0C1C2C3C4C4C6C6C8C8C92B
:101D9000CACACCCCCECECFD0D0D2D2D4D3D6D5D73F
:101DA000D8D8DAD9DCDBDDDEDEE1DFE3E0E4E3E452
:101DB000E7E4EAE4ECE7EBEDE5FF801A01181E1119
:101DC000131D1B151A1F1B1A20211E1F242321243B
:101DD0002725252929282A2C2C2B2E2F2E2F32324D
:101DE0003233353535383938393B3C3B3D3F3E3F62
:101DF00041424243454545474848494B4B4B4D4E70
:101E00004E4F50515152545555565858585A5B5B85
:101E10005C5E5E5E60616162646464666767686997
:101E20006A6B6B6D6E6E6F717171737474757777A9
:101E300077797A7A7B7D7D7D7F80808081838383C3
:101E4000858686878989898B8C8C8D8F8F8F9192DF
:101E50009293959596979899999A9C9C9C9E9F9FF2
:101E6000A0A2A2A2A4A5A5A6A8A8A8AAABABACAE06
:101E7000AFAFB0B1B2B2B3B5B5B5B7B8B8B9BBBB17
:101E8000BBBDBEBEBFC1C2C1C3C5C4C5C7C8C7C82C
:101E9000CBCBCBCDCECECED1D2D1D2D5D4D4D6D839
:101EA000D7D7DBDBD9DCDFDDDCE1E2DFE0E6E5E153
:101EB000E6EBE5E3EDEFE2E8FFE680390B000D1D10
:101EC000211B13131920211D1A1B20242421202239
:101ED0002628282626282B2D2C2B2B2E313231304C
:101EE00031343636353537393B3B3A3B3C3F404061
:101EF0003F4042444545454547494A4A4A4B4D4E75
:101F00004F4F4F50525454545456585959595A5B84
:101F10005D5E5E5E5F616263636364666768686896
:101F20006A6C6C6D6D6E6F717172727375767777A6
:101F300077787A7B7C7C7C7E7F80808081828484C1
:101F4000848586888989898A8B8D8E8E8F8F9192E0
:101F50009393949496989898999A9C9D9D9D9E9FF2
:101F6000A1A2A2A2A3A5A6A7A7A7A8AAACACACAC05
:101F7000AEB0B1B1B1B2B3B5B6B6B6B7B9BBBBBB13
:101F8000BBBCBEC0C1C0C0C1C4C5C6C5C5C7C9CB26
:101F9000CBCACACCCFD0CFCECFD2D5D5D4D3D5D83B
:101FA000DADAD8D8DADEE0DFDCDCE0E5E6E3DFE051
:101FB000E7EDEDE5DFE3F3FFF5C78051290E0203FE
:101FC0000C172024221D1815161A20242626242139
:101FD000202124282B2C2C2B2A292A2C2F32333356
:101FE000333231323437393B3B3A3A3A3B3D3F4169
:101FF0004242424242434547494A4A4A4A4A4B4C76
:102000004E50515252515253545658595A59595A86
:102010005B5C5E6061616161626364666869696995
:1020200069696A6C6E6F70717171717274767778AC
:10203000797979797A7C7D7F8080808080818384C2
:10204000868787878788898A8C8E8F8F8F8F9091DC
:102050009294969797979797989A9C9D9E9F9F9FEB
:102060009FA0A2A4A5A6A7A7A6A7A8AAACADAEAFFD
:10207000AEAEAFB0B2B4B5B6B6B6B6B6B7B9BBBD14
:10208000BEBEBEBEBEBFC1C3C5C6C6C6C5C5C7C926
:10209000CCCECFCECDCDCDCED1D4D6D7D6D5D4D42F
:1020A000D5D8DCDFE0DFDCDADADCE0E6EAEBE8E337
:1020B000DEDCE0E9F4FDFEF2D7AF8061442B180BC3
:1020C0000403060C141C2226282725221E1C1B1B79
:1020D0001D2124282B2E2F2F2E2C2B2A2A2B2C2F60
:1020E0003134363839393938373737383A3C3E4069
:1020F0004244444544444444444547484A4C4E4F76
:102100005050505050505152535557595A5B5C5C87
:102110005C5C5C5C5D5E606163656667686868689E
:102120006869696B6C6E70717374747474747575AE
:102130007677797A7C7E7F808080808080808182C3
:10214000848687898A8B8B8C8C8C8C8C8D8F9092DB
:10215000949597979898989898999A9B9D9FA0A2E4
:10216000A3A4A4A4A4A4A4A5A6A7A9ABADAEAFB0F4
:10217000B0B0B0B0B0B1B2B4B6B8B9BBBCBCBCBC06
:10218000BCBBBCBCBEC0C2C4C6C8C9C9C9C8C7C71D
:10219000C7C8CACCCFD1D4D5D6D6D5D4D2D1D1D236
:1021A000D5D8DCDFE3E5E5E4E2DEDBD9D8DADEE44E
:1021B000ECF4FAFDFCF5E8D5BC9F806D5A49382A4D
:1021C0001E140C08050506090D12181D22262A2CBE
:1021D0002E2F2E2D2C2A2927262524252627292C6B
:1021E0002F313437393B3C3D3D3D3D3D3C3B3B3B56
:1021F0003B3B3C3D3F41434547494B4D4E4F4F5084
:102200005050504F4F4F4F505052535456585A5CA5
:102210005E5F606262636363636363636364646598
:1022200067686A6B6D6F717274757576767777779C
:102230007777777778797A7B7D7F808183858687CA
:1022400088898989898989898A8A8B8B8C8E8F91E3
:1022500093959698999B9C9C9D9D9D9D9D9D9D9DD4
:102260009E9EA0A1A2A4A6A8AAACADAEB0B0B1B1EA
:10227000B1B1B0B0B0B0B1B1B2B3B5B7B9BBBDBF19
:10228000C1C3C4C5C5C5C5C5C4C3C3C3C3C3C4C511
:10229000C7C9CCCFD1D4D7D9DADBDCDBDAD9D7D6F2
:1022A000D4D3D2D1D2D4D6DADEE3E8EEF3F7FAFB18
:1022B000FBF8F4ECE2D6C8B7A6938074685B50458F
:1022C0003A3128201A140F0C0A080808090B0E11BD
:1022D00014181C2023272A2E303335363838393944
:1022E00038383736363534333232323233333435A8
:1022F00037393B3D3F414345484A4C4D4F50515281
:10230000535353535353535353525252535354549E
:10231000555658595B5C5E6062646667696B6C6DAC
:102320006E6F7070717171717171717171727272A1
:102330007374747677787A7B7D7F808183858688D5
:10234000898A8C8C8D8E8E8E8F8F8F8F8F8F8F8FB3
:102350008F9090919293949597999A9C9EA0A2A405
:10236000A5A7A8AAABACACADADAEAEAEADADADADB4
:10237000ADADADADADAEAFB0B1B3B4B6B8BBBDBF32
:10238000C1C3C5C7C9CBCCCDCDCECECECECDCCCBA7
:10239000CACAC9C8C8C7C7C8C8CACBCDD0D2D6D97F
:1023A000DDE0E4E8ECEFF2F5F7F8F8F8F6F4F1EC3C
:1023B000E6E0D8CFC6BBB0A5988C80776E655D543B
:1023C0004C443C352F29231E1A1613100E0C0B0BF0
:1023D0000B0B0C0E101214171A1D202326292C2F5C
:1023E0003235373A3C3D3F40424343444444444401
:1023F00044434342424141414040404040414142C8
:102400004344454648494B4D4F51535557595B5CE2
:102410005E6062636566676869696A6B6B6B6B6B4C
:102420006C6C6B6B6B6B6B6C6C6C6C6D6D6E6F70E6
:10243000717273757678797B7D7F808183858788DB
:102440008A8B8D8E8F90919293939494949495957A
:102450009595959494959595959596979798999A1D
:102460009B9D9EA0A2A4A5A7A9ABADAFB1B3B5B7E4
:10247000B8BABBBCBDBEBFBFC0C0C0C0C0BFBFBF7D
:10248000BEBEBDBDBCBCBCBCBCBCBDBDBEC0C1C372
:10249000C4C6C9CBCED1D4D7DADDE0E3E6E9ECEEB1
:1024A000F0F2F4F5F5F5F5F4F2F0EDEAE6E2DDD759
:1024B000D1CBC4BCB4ACA39B928980E6E7E5E4E54C
:1024C000E6E5E5E5E5E5E5E5E5E5E5E5E5E5E5E5BB
:1024D000E5E5E5E5E5E5E5E5E5E5E5E5E5E5E5E5AC
:1024E000E5E5E5E5E5E5E5E5E5E5E5E5E5E5E5E59C
:1024F000E5E5E5E5E5E5E5E5E5E5E5E5E5E5E5E58C
:10250000E5E5E5E5E5E5E5E5E5E5E5E5E5E5E5E57B
:10251000E5E5E5E5E5E5E5E5E5E5E5E5E5E5E5E56B
:10252000E5E5E5E5E5E5E5E5E5E5E5E5E5E5E5E55B
:10253000E5E5E5E5E6E5E4E5E7E6801A191B1C1BA1
:102540001A1B1B1B1B1B1B1B1B1B1B1B1B1B1B1BDC
:102550001B1B1B1B1B1B1B1B1B1B1B1B1B1B1B1BCB
:102560001B1B1B1B1B1B1B1B1B1B1B1B1B1B1B1BBB
:102570001B1B1B1B1B1B1B1B1B1B1B1B1B1B1B1BAB
:102580001B1B1B1B1B1B1B1B1B1B1B1B1B1B1B1B9B
:102590001B1B1B1B1B1B1B1B1B1B1B1B1B1B1B1B8B
:1025A0001B1B1B1B1B1B1B1B1B1B1B1B1B1B1B1B7B
:1025B0001B1B1B1B1A1B1C1B191A80E6E8E4E4E614
:1025C000E6E4E5E6E5E4E5E5E5E5E5E5E5E5E5E5BB
:1025D000E5E5E5E5E5E5E5E5E5E5E5E5E5E5E5E5AB
:1025E000E5E5E5E5E5E5E5E5E5E5E5E5E5E5E5E59B
:1025F000E5E5E5E5E5E5E5E5E5E5E5E5E5E5E5E58B
:10260000E5E5E5E5E5E5E5E5E5E5E5E5E5E5E5E57A
:10261000E5E5E5E5E5E5E5E5E5E5E5E5E5E5E5E56A
:10262000E5E5E5E5E5E5E5E5E5E5E5E5E5E5E5E45B
:10263000E5E6E5E4E6E6E4E4E8E6801A181C1C1AA0
:102640001A1C1B1A1B1C1B1B1B1B1B1B1B1B1B1BDA
:102650001B1B1B1B1B1B1B1B1B1B1B1B1B1B1B1BCA
:102660001B1B1B1B1B1B1B1B1B1B1B1B1B1B1B1BBA
:102670001B1B1B1B1B1B1B1B1B1B1B1B1B1B1B1BAA
:102680001B1B1B1B1B1B1B1B1B1B1B1B1B1B1B1B9A
:102690001B1B1B1B1B1B1B1B1B1B1B1B1B1B1B1B8A
:1026A0001B1B1B1B1B1B1B1B1B1B1B1B1B1B1B1C79
:1026B0001B1A1B1C1A1A1C1C181A80DDE3E5E6E71E
:1026C000E7E6E6E5E5E4E4E5E5E5E6E6E6E6E5E5B4
:1026D000E5E5E5E5E5E5E5E6E5E5E5E5E5E5E5E5A9
:1026E000E5E5E5E5E5E5E5E5E5E5E5E5E5E5E5E59A
:1026F000E5E5E5E5E5E5E5E5E5E5E5E5E5E5E5E58A
:10270000E5E5E5E5E5E5E5E5E5E5E5E5E5E5E5E579
:10271000E5E5E5E5E5E5E5E5E5E5E5E5E5E6E5E568
:10272000E5E5E5E5E5E5E5E6E6E6E6E5E5E5E4E457
:10273000E5E5E6E6E7E7E6E5E3DD80231D1B1A199C
:10274000191A1A1B1B1C1C1B1B1B1A1A1A1A1B1BDF
:102750001B1B1B1B1B1B1B1A1B1B1B1B1B1B1B1BCA
:102760001B1B1B1B1B1B1B1B1B1B1B1B1B1B1B1BB9
:102770001B1B1B1B1B1B1B1B1B1B1B1B1B1B1B1BA9
:102780001B1B1B1B1B1B1B1B1B1B1B1B1B1B1B1B99
:102790001B1B1B1B1B1B1B1B1B1B1B1B1B1A1B1B8A
:1027A0001B1B1B1B1B1B1B1A1A1A1A1B1B1B1C1C7B
:1027B0001B1B1A1A19191A1B1D2380EDEAE0E5E804
:1027C000E3E4E7E4E4E6E5E4E6E5E4E5E6E4E5E6BB
:1027D000E4E5E6E5E5E5E5E4E5E5E4E5E5E4E5E5AC
:1027E000E5E5E5E5E5E5E5E5E5E5E5E5E5E5E5E599
:1027F000E5E5E5E5E5E5E5E5E5E5E5E5E5E5E5E589
:10280000E5E5E5E5E5E5E5E5E5E5E5E5E5E5E5E578
:10281000E5E5E5E5E5E5E5E4E5E5E4E5E5E4E5E56B
:10282000E5E5E6E5E4E6E5E4E6E5E4E5E6E4E5E657
:10283000E4E4E7E4E3E8E5E0EAED801316201B18A2
:102840001D1C191C1C1A1B1C1A1B1C1B1A1C1B1AD6
:102850001C1B1A1B1B1B1B1C1B1B1C1B1B1C1B1BC5
:102860001B1B1B1B1B1B1B1B1B1B1B1B1B1B1B1BB8
:102870001B1B1B1B1B1B1B1B1B1B1B1B1B1B1B1BA8
:102880001B1B1B1B1B1B1B1B1B1B1B1B1B1B1B1B98
:102890001B1B1B1B1B1B1B1C1B1B1C1B1B1C1B1B85
:1028A0001B1B1A1B1C1A1B1C1A1B1C1B1A1C1B1A79
:1028B0001C1C191C1D181B20161380F5DFE6E7E20F
:1028C000E8E1E8E3E5E5E4E7E3E6E4E5E5E4E6E4BA
:1028D000E6E4E5E5E4E6E4E6E4E5E5E5E5E4E6E4AA
:1028E000E5E5E5E5E4E6E4E5E5E5E5E4E5E4E5E59B
:1028F000E5E5E4E5E4E5E5E5E5E4E5E4E5E5E5E58C
:10290000E4E5E4E5E5E5E5E4E5E4E5E5E5E5E4E67B
:10291000E4E5E5E5E5E4E6E4E5E5E5E5E4E6E4E669
:10292000E4E5E5E4E6E4E6E4E5E5E4E6E3E7E4E55A
:10293000E5E3E8E1E8E2E7E6DFF5800B211A191E9E
:10294000181F181D1B1B1C191D1A1C1B1B1C1A1CD5
:102950001A1C1B1B1C1A1C1A1C1B1B1B1B1C1A1CC5
:102960001B1B1B1B1C1A1C1B1B1B1B1C1B1C1B1BB4
:102970001B1B1C1B1C1B1B1B1B1C1B1C1B1B1B1BA3
:102980001C1B1C1B1B1B1B1C1B1C1B1B1B1B1C1A93
:102990001C1B1B1B1B1C1A1C1B1B1B1B1C1A1C1A85
:1029A0001C1B1B1C1A1C1A1C1B1B1C1A1D191C1B74
:1029B0001B1D181F181E191A210B80DEF6E2DDE917
:1029C000E9E1E3E9E6E2E5E8E4E3E7E6E3E4E7E5B5
:1029D000E3E5E7E4E4E6E6E4E5E6E5E4E5E6E4E4A9
:1029E000E6E6E4E5E6E5E4E5E6E4E4E6E5E4E5E696
:1029F000E5E4E5E6E4E4E6E5E4E5E6E5E4E5E6E489
:102A0000E4E6E5E4E5E6E5E4E5E6E4E4E6E5E4E578
:102A1000E6E5E4E6E6E4E4E6E5E4E5E6E5E4E6E664
:102A2000E4E4E7E5E3E5E7E4E3E6E7E3E4E8E5E259
:102A3000E6E9E3E1E9E9DDE2F6DE80220A1E23179A
:102A4000171F1D171A1E1B181C1D191A1D1C191BD8
:102A50001D1B191C1C1A1A1C1B1A1B1C1B1A1C1CC4
:102A60001A1A1C1B1A1B1C1B1A1C1C1A1B1C1B1AB7
:102A70001B1C1B1A1C1C1A1B1C1B1A1B1C1B1A1CA4
:102A80001C1A1B1C1B1A1B1C1B1A1C1C1A1B1C1B94
:102A90001A1B1C1A1A1C1C1A1B1C1B1A1B1C1A1A88
:102AA0001C1C191B1D1B191C1D1A191D1C181B1E73
:102AB0001A171D1F1717231E0A2280C1ECF7EDDF1E
:102AC000DBE2EAECE7E1E0E4E9E9E5E2E2E5E8E8B7
:102AD000E5E3E3E6E8E7E4E3E4E6E7E6E4E3E4E6A7
:102AE000E7E6E4E3E5E6E7E5E4E4E5E7E6E5E4E494
:102AF000E5E7E6E5E4E4E6E7E6E4E4E4E6E7E6E481
:102B0000E4E5E6E7E5E4E4E5E6E7E5E4E4E5E7E671
:102B1000E5E3E4E6E7E6E4E3E4E6E7E6E4E3E4E766
:102B2000E8E6E3E3E5E8E8E5E2E2E5E9E9E4E0E157
:102B3000E7ECEAE2DBDFEDF7ECC1803F140913219B
:102B4000251E1614191F201C17171B1E1E1B1818D4
:102B50001B1D1D1A18191C1D1C1A191A1C1D1C1AC4
:102B6000191A1C1D1B1A191B1C1C1B191A1B1C1CB7
:102B70001B191A1B1C1C1A191A1C1C1C1A191A1CAA
:102B80001C1B1A191B1C1C1B1A191B1C1C1B191A99
:102B90001B1D1C1A191A1C1D1C1A191A1C1D1C1984
:102BA000181A1D1D1B18181B1E1E1B17171C201F73
:102BB0001914161E25211309143F80ABD0E9F6F72E
:102BC000F0E7DFDBDDE2E8EBECEAE6E2E0E1E3E7B9
:102BD000E9EAE9E6E3E2E2E4E6E8E9E8E6E4E3E399
:102BE000E4E6E7E8E8E6E4E3E3E4E5E7E8E8E6E589
:102BF000E3E3E4E5E7E8E8E7E5E4E3E4E5E7E8E87C
:102C0000E7E5E4E3E3E5E6E8E8E7E5E4E3E3E4E673
:102C1000E8E8E7E6E4E3E3E4E6E8E9E8E6E4E2E25C
:102C2000E3E6E9EAE9E7E3E1E0E2E6EAECEBE8E241
:102C3000DDDBDFE7F0F7F6E9D0AB805530170A09A6
:102C400010192125231E181514161A1E201F1D19D0
:102C50001716171A1D1E1E1C1A1817181A1C1D1DD0
:102C60001C1A1918181A1C1D1D1C1B1918181A1BC0
:102C70001D1D1C1B191818191B1C1D1C1B191818AD
:102C8000191B1C1D1D1B1A1818191B1C1D1D1C1A95
:102C90001818191A1C1D1D1C1A1817181A1C1E1E8C
:102CA0001D1A171617191D1F201E1A161415181E87
:102CB0002325211910090A173055809CB7CEE0EE64
:102CC000F6F8F7F2ECE6E1DDDCDCDFE2E6E9ECED7C
:102CD000EDEBE9E6E3E1E0E0E2E3E6E8E9EAEAEA8F
:102CE000E8E6E4E3E2E2E2E4E5E7E9E9EAE9E8E686
:102CF000E5E3E2E2E3E4E5E7E8E9E9E9E8E7E5E47A
:102D0000E3E2E2E3E5E6E8E9EAE9E9E7E5E4E2E26D
:102D1000E2E3E4E6E8EAEAEAE9E8E6E3E2E0E0E161
:102D2000E3E6E9EBEDEDECE9E6E2DFDCDCDDE1E654
:102D3000ECF2F7F8F6EEE0CEB79C80644932201250
:102D40000A08090E141A1F232424211E1A1714130B
:102D50001315171A1D1F20201E1D1A1817161616D8
:102D6000181A1C1D1E1E1E1C1B1917171617181AC1
:102D70001B1D1E1E1D1C1B191817171718191B1CAD
:102D80001D1E1E1D1B1A1817161717191B1C1E1E99
:102D90001E1D1C1A1816161617181A1D1E20201F85
:102DA0001D1A1715131314171A1E212424231F1A72
:102DB000140E09080A122032496480909FAFBDCAE0
:102DC000D6E0E8EFF4F7F9FAF9F7F4F1EDEAE6E323
:102DD000E1DEDDDCDCDDDEDFE1E4E6E8EAECEDEEC1
:102DE000EFEFEEEDECEAE9E7E5E3E2E1E0E0E0E178
:102DF000E2E3E4E6E7E9EAECEDEDEDEDEDECEAE93E
:102E0000E7E6E4E3E2E1E0E0E0E1E2E3E5E7E9EA86
:102E1000ECEDEEEFEFEEEDECEAE8E6E4E1DFDEDD2F
:102E2000DCDCDDDEE1E3E6EAEDF1F4F7F9FAF9F7EF
:102E3000F4EFE8E0D6CABDAF9F9080706151433691
:102E40002A2018110C09070607090C0F13161A1D62
:102E50001F222324242322211F1C1A1816141312A4
:102E600011111213141617191B1D1E1F2020201FCD
:102E70001E1D1C1A191716141313131313141617E7
:102E8000191A1C1D1E1F2020201F1E1D1B1917167E
:102E9000141312111112131416181A1C1F212223B5
:102EA000242423221F1D1A16130F0C0907060709D5
:102EB0000C1118202A36435161708089939DA6AF6A
:102EC000B8C0C8D0D7DDE3E8EDF1F4F7F9FBFCFCBE
:102ED000FCFBFAF9F8F6F4F1EFEDEAE8E6E4E2E0FB
:102EE000DFDEDDDCDCDCDCDDDDDEE0E1E2E4E6E7EC
:102EF000E9EBECEEEFF0F1F2F3F3F3F3F3F2F1F0D0
:102F0000EFEEECEBE9E7E6E4E2E1E0DEDDDDDCDC80
:102F1000DCDCDDDEDFE0E2E4E6E8EAEDEFF1F4F64A
:102F2000F8F9FAFBFCFCFCFBF9F7F4F1EDE8E3DD62
:102F3000D7D0C8C0B8AFA69D938980776D635A512A
:102F40004840383029231D18130F0C0907050404C5
:102F500004050607080A0C0F111316181A1C1E2068
:102F600021222324242424232322201F1E1C1A1957
:102F70001715141211100F0E0D0D0D0D0D0E0F1053
:102F80001112141517191A1C1E1F20222323242482
:102F90002424232221201E1C1A181613110F0C0A98
:102FA000080706050404040507090C0F13181D2360
:102FB0002930384048515A636D7780868D939AA0A6
:102FC000A7ADB3B9BFC4CACFD4D9DDE1E5E9EDF00F
:102FD000F2F5F7F9FBFCFEFEFFFFFFFFFFFFFEFD32
:102FE000FCFBF9F8F6F5F3F1EFEDECEAE8E6E5E3E2
:102FF000E2E0DFDEDDDCDBDBDADADADADADBDBDC0F
:10300000DDDEDFE0E2E3E5E6E8EAECEDEFF1F3F543
:10301000F6F8F9FBFCFDFEFFFFFFFFFFFFFEFEFCE5
:10302000FBF9F7F5F2F0EDE9E5E1DDD9D4CFCAC45B
:10303000BFB9B3ADA7A09A938D86807A736D666091
:1030400059534D47413C36312C27231F1B17131072
:103050000E0B090705040202010100010101020330
:10306000040507080A0B0D0F11131416181A1B1D5F
:103070001E20212223242525262626262625252412
:10308000232221201E1D1B1A18161413110F0D0BBD
:103090000A080705040302010101000101020204FC
:1030A0000507090B0E1013171B1F23272C31363C65
:1030B00041474D535960666D737A807E7C7A78768D
:1030C0007472706E6C6A68666462605E5C5A5856B0
:1030D0005452504E4C4A48464442403E3C3A3836A0
:1030E0003432302E2C2A28262422201E1C1A181690
:1030F0001412100E0C0A0806040200020406080A44
:103100000C0E10121416181A1C1E20222426282A0F
:103110002C2E30323436383A3C3E40424446484AFF
:103120004C4E50525456585A5C5E60626466686AEF
:103130006C6E70727476787A7C7E80828486888ADF
:103140008C8E90929496989A9C9EA0A2A4A6A8AACF
:10315000ACAEB0B2B4B6B8BABCBEC0C2C4C6C8CABF
:10316000CCCED0D2D4D6D8DADCDEE0E2E4E6E8EAAF
:10317000ECEEF0F2F4F6F8FAFCFEFFFEFCFAF8F6DC
:10318000F4F2F0EEECEAE8E6E4E2E0DEDCDAD8D6EF
:10319000D4D2D0CECCCAC8C6C4C2C0BEBCBAB8B6DF
:1031A000B4B2B0AEACAAA8A6A4A2A09E9C9A9896CF
:1031B0009492908E8C8A88868482807E7C7A7876BF
:1031C0007472706E6C6A68666462605E5C5A5856AF
:1031D0005452504E4C4A48464442403E3C3A38369F
:1031E0003432302E2C2A28262422201E1C1A18168F
:1031F0001412100E0C0A0806040201020406080A42
:103200000C0E10121416181A1C1E20222426282A0E
:103210002C2E30323436383A3C3E40424446484AFE
:103220004C4E50525456585A5C5E60626466686AEE
:103230006C6E70727476787A7C7E80828486888ADE
:103240008C8E90929496989A9C9EA0A2A4A6A8AACE
:10325000ACAEB0B2B4B6B8BABCBEC0C2C4C6C8CABE
:10326000CCCED0D2D4D6D8DADCDEE0E2E4E6E8EAAE
:10327000ECEEF0F2F4F6F8FAFCFEFFFEFCFAF8F6DB
:10328000F4F2F0EEECEAE8E6E4E2E0DEDCDAD8D6EE
:10329000D4D2D0CECCCAC8C6C4C2C0BEBCBAB8B6DE
:1032A000B4B2B0AEACAAA8A6A4A2A09E9C9A9896CE
:1032B0009492908E8C8A88868482807E7C7A7876BE
:1032C0007472706E6C6A68666462605E5C5A5856AE
:1032D0005452504E4C4A48464442403E3C3A38369E
:1032E0003432302E2C2A28262422201E1C1A18168E
:1032F0001412100E0C0A0806040201020406080A41
:103300000C0E10121416181A1C1E20222426282A0D
:103310002C2E30323436383A3C3E40424446484AFD
:103320004C4E50525456585A5C5E60626466686AED
:103330006C6E70727476787A7C7E80828486888ADD
:103340008C8E90929496989A9C9EA0A2A4A6A8AACD
:10335000ACAEB0B2B4B6B8BABCBEC0C2C4C6C8CABD
:10336000CCCED0D2D4D6D8DADCDEE0E2E4E6E8EAAD
:10337000ECEEF0F2F4F6F8FAFCFEFFFEFCFAF8F6DA
:10338000F4F2F0EEECEAE8E6E4E2E0DEDCDAD8D6ED
:10339000D4D2D0CECCCAC8C6C4C2C0BEBCBAB8B6DD
:1033A000B4B2B0AEACAAA8A6A4A2A09E9C9A9896CD
:1033B0009492908E8C8A88868482807E7C7A7876BD
:1033C0007472706E6C6A68666462605E5C5A5856AD
:1033D0005452504E4C4A48464442403E3C3A38369D
:1033E0003432302E2C2A28262422201E1C1A18168D
:1033F0001412100E0C0A0806040201020406080A40
:103400000C0E10121416181A1C1E20222426282A0C
:103410002C2E30323436383A3C3E40424446484AFC
:103420004C4E50525456585A5C5E60626466686AEC
:103430006C6E70727476787A7C7E80828486888ADC
:103440008C8E90929496989A9C9EA0A2A4A6A8AACC
:10345000ACAEB0B2B4B6B8BABCBEC0C2C4C6C8CABC
:10346000CCCED0D2D4D6D8DADCDEE0E2E4E6E8EAAC
:10347000ECEEF0F2F4F6F8FAFCFEFFFEFCFAF8F6D9
:10348000F4F2F0EEECEAE8E6E4E2E0DEDCDAD8D6EC
:10349000D4D2D0CECCCAC8C6C4C2C0BEBCBAB8B6DC
:1034A000B4B2B0AEACAAA8A6A4A2A09E9C9A9896CC
:1034B0009492908E8C8A88868482807E7D7A7876BB
:1034C0007472706E6C6A68666462605E5C5A5856AC
:1034D0005452504E4C4A48464442403E3C3A38369C
:1034E0003432302E2C2A28262422201E1C1A18168C
:1034F0001412100E0C0A0806040201020406080A3F
:103500000C0E10121416181A1C1E20222426282A0B
:103510002C2E30323436383A3C3E40424446484AFB
:103520004C4E50525456585A5C5E60626466686AEB
:103530006C6E70727476787A7D7E80828386888ADB
:103540008C8E90929496989A9C9EA0A2A4A6A8AACB
:10355000ACAEB0B2B4B6B8BABCBEC0C2C4C6C8CABB
:10356000CCCED0D2D4D6D8DADCDEE0E2E4E6E8EAAB
:10357000ECEEF0F2F4F6F8FAFCFEFFFEFCFAF8F6D8
:10358000F4F2F0EEECEAE8E6E4E2E0DEDCDAD8D6EB
:10359000D4D2D0CECCCAC8C6C4C2C0BEBCBAB8B6DB
:1035A000B4B2B0AEACAAA8A6A4A2A09E9C9A9896CB
:1035B0009492908E8C8A88868382807E7D7B7876BA
:1035C0007572706E6C6A68666462605E5C5A5856AA
:1035D0005452504E4C4A48464442403E3C3A38369B
:1035E0003432302E2C2A28262422201E1C1A18168B
:1035F0001412100E0C0A0807040201020407080A3C
:103600000C0E10121416181A1C1E20222426282A0A
:103610002C2E30323436383A3C3E40424446484AFA
:103620004C4E50525456585A5C5E60626466686AEA
:103630006C6E70727576787B7D7E80828385888AD9
:103640008B8E90929496989A9C9EA0A2A4A6A8AACB
:10365000ACAEB0B2B4B6B8BABCBEC0C2C4C6C8CABA
:10366000CCCED0D2D4D6D8DADCDEE0E2E4E6E8EAAA
:10367000ECEEF0F2F4F6F8F9FCFEFFFEFCF9F8F6D9
:10368000F4F2F0EEECEAE8E6E4E2E0DEDCDAD8D6EA
:10369000D4D2D0CECCCAC8C6C4C2C0BEBCBAB8B6DA
:1036A000B4B2B0AEACAAA8A6A4A2A09E9C9A9896CA
:1036B0009492908E8B8A88858382807F7D7A7876BB
:1036C0007473716E6C6A68676462605E5C5B5856A6
:1036D0005452504E4C4A48464442403E3C3A38369A
:1036E0003432302E2C2A28262422211E1C1A181788
:1036F0001512100E0C0B0906040202020406090B37
:103700000C0E10121517181A1C1E21222426282A06
:103710002C2E30323436383A3C3E40424446484AF9
:103720004C4E50525456585B5C5E60626467686AE7
:103730006C6E71737476787A7D7F80818386888AD7
:103740008C8D8F92949698999C9EA0A2A4A5A8AACD
:10375000ACAEB0B2B4B6B8BABCBEC0C2C4C6C8CAB9
:10376000CCCED0D2D4D6D8DADCDEDFE2E4E6E8E9AB
:10377000EBEEF0F2F4F5F7FAFCFEFEFEFCFAF7F5DC
:10378000F4F2F0EEEBE9E8E6E4E2DFDEDCDAD8D6EC
:10379000D4D2D0CECCCAC8C6C4C2C0BEBCBAB8B6D9
:1037A000B4B2B0AEACAAA8A5A4A2A09E9C999896CB
:1037B00094928F8D8C8A88868381807F7D7B7976B9
:1037C0007472706E6D6B69676462605E5C5B5957A2
:1037D0005552504E4C4A49474543403E3C3A383694
:1037E0003533312E2C2A28262423211F1C1A181683
:1037F0001413110F0D0A0806040302030406080A35
:103800000D0F11131416181A1C1F21232426282A01
:103810002C2E31333536383A3C3E40434547494AF1
:103820004C4E50525557595B5C5E60626467696BE1
:103830006D6E70727476797B7D7F80818385878AD7
:103840008C8E9092939597999C9EA0A2A4A5A7A9CF
:10385000ABAEB0B2B4B6B7B9BBBDC0C2C4C6C8CABD
:10386000CBCDCFD2D4D6D8DADCDDDFE1E4E6E8EAAE
:10387000ECEDEFF1F3F6F8FAFCFDFEFDFCFAF8F6DC
:10388000F3F1EFEDECEAE8E6E4E1DFDDDCDAD8D6EF
:10389000D4D2CFCDCBCAC8C6C4C2C0BDBBB9B7B6DF
:1038A000B4B2B0AEABA9A7A5A4A2A09E9C999795CF
:1038B0009392908E8C8A87858381807E7C7A7876BD
:1038C0007472716F6D6B69676462605E5C5A5856A2
:1038D0005553514F4D4B48464442403E3C3A393790
:1038E0003533312F2C2A28262422201E1D1B191780
:1038F0001513100E0C090706040403040406070937
:103900000C0E10131517191B1D1E20222426282A01
:103910002C2F31333537393A3C3E40424446484BF0
:103920004D4F51535556585A5C5E60626467696BDF
:103930006D6F71727476787A7C7E80828486888AD4
:103940008C8E8F91939597999C9EA0A2A4A6A8AACD
:10395000ABADAFB1B3B5B8BABCBEC0C2C4C6C7C9BF
:10396000CBCDCFD1D4D6D8DADCDEE0E2E3E5E7E9AF
:10397000EBEDF0F2F4F7F9FAFCFCFDFCFCFAF9F7D8
:10398000F4F2F0EDEBE9E7E5E3E2E0DEDCDAD8D6ED
:10399000D4D1CFCDCBC9C7C6C4C2C0BEBCBAB8B5DE
:1039A000B3B1AFADABAAA8A6A4A2A09E9C999795CF
:1039B00093918F8E8C8A88868482807E7C7A7876BA
:1039C0007472706E6C6A68676563615F5D5B59579E
:1039D0005553514E4C4A48464442403E3C3A383694
:1039E0003533312F2D2B29272523211F1C1A18157C
:1039F00013110F0D0B09080706060606060708092E
:103A00000B0D0F111315181A1C1F21232527292B05
:103A10002D2F31333536383A3C3E40424446484AF1
:103A20004C4E51535557595B5D5F61636567686ADA
:103A30006C6E70727476787A7C7E80828486888AD6
:103A40008C8E9092949698999B9D9FA1A3A5A7A9CF
:103A5000ABADAFB2B4B6B8BABCBEC0C2C4C6C8CAB9
:103A6000CBCDCFD1D3D5D7D9DBDDDFE1E4E6E8EBB1
:103A7000EDEFF1F3F5F7F8F9FAFAFAFAFAF9F8F7DF
:103A8000F5F3F1EFEDEBE8E6E4E1DFDDDBD9D7D5E7
:103A9000D3D1CFCDCBCAC8C6C4C2C0BEBCBAB8B6DB
:103AA000B4B2AFADABA9A7A5A3A19F9D9B999896D2
:103AB0009492908E8C8A88868482807E7C7A7876B6
:103AC00073716F6D6B6967656361605E5C5A5857AF
:103AD000555351504E4C4A48464442403E3C3A377A
:103AE0003533302E2C29272522201E1C191715149A
:103AF00012100F0D0C0B0A0A09090909090A0A0B11
:103B00000C0D0F1012141517191C1E202225272921
:103B10002C2E303335373A3C3E40424446484A4CDE
:103B20004E5051535557585A5C5E606163656769E2
:103B30006B6D6F717376787A7C7E80828486888ADA
:103B40008D8F91939597999B9D9FA0A2A4A6A8A9BC
:103B5000ABADAFB0B2B4B6B8BABCBEC0C2C4C6C9D1
:103B6000CBCDD0D2D4D7D9DBDEE0E2E4E7E9EBEC91
:103B7000EEF0F1F3F4F5F6F6F7F7F7F7F7F6F6F5FA
:103B8000F4F3F1F0EEECEBE9E7E4E2E0DEDBD9D7C9
:103B9000D4D2D0CDCBC9C6C4C2C0BEBCBAB8B6B4EC
:103BA000B2B0AFADABA9A8A6A4A2A09F9D9B9997C8
:103BB0009593918F8D8A88868482807F7D7B7A78A9
:103BC000767473716F6D6B69676563615F5D5B5977
:103BD000575452504D4B494644423F3D3A38363394
:103BE000312F2C2A28262422201E1C1A19171614BD
:103BF000131211100F0F0E0E0D0D0D0D0D0E0E0FD9
:103C00000F10111213141617191A1C1E2022242625
:103C1000282A2C2F313336383A3D3F424446494B0F
:103C20004D50525457595B5D5F61636567696B6DB9
:103C30006F71737476787A7B7D7F808183858688C7
:103C40008A8C8D8F91939597999B9D9FA1A3A5A7F2
:103C5000A9ACAEB0B3B5B7BABCBEC1C3C6C8CACDB5
:103C6000CFD1D4D6D8DADCDEE0E2E4E6E7E9EAEC6C
:103C7000EDEEEFF0F1F1F2F2F3F3F3F3F3F2F2F130
:103C8000F1F0EFEEEDECEAE9E7E6E4E2E0DEDCDAC3
:103C9000D8D6D4D1CFCDCAC8C6C3C1BEBCBAB7B5B9
:103CA000B3B0AEACA9A7A5A3A19F9D9B99979593EF
:0A3CB000918F8D8C8A8886858381B0
:00000001FF
