:020000020000FC
:100000000C94B2040C942A000C942A000C942A003C
:100010000C94D7010C942A000C942A000C942A000A
:100020000C942A000C942A000C942A000C942A00A8
:100030000C942A000C9433030C942A000C942A008C
:100040000C942A000C942A000C942A000C942A0088
:100050000C942A0018952E650D0017310E001F090B
:100060000F0001EE0F007FE0100067E1110097F133
:100070001200F61114007B4315002B8716001ADEC0
:1000800017006D4919005BCA1A0001010101010145
:100090000101010102020202020202020202020244
:1000A000020202020202020203040404040405051F
:1000B00005050606060606060708080809090A0ACD
:1000C0000A0A0B0C0C0C0C0D0E0F1011121213144B
:1000D00015161718191A1B1C1E2021222324262846
:1000E0002A2C2E30323436383A404244484C4F5253
:1000F00055585D6165686C70767E858A90969DA482
:10010000ABB0BAC4CED8E0E8F4FFFFFF0DC7C59A84
:100110005778915DC1489138FC2B3322971AAD1462
:100120001310800CB8098F07E00592048D03C302F9
:100130002602AB014C010201C9009C0079005E005F
:10014000490039002C0023001B00000001010101BF
:100150000101010101010202020202020203030382
:100160000303040404040404050505050606060645
:100170000606070707070707080808080808090907
:10018000090909090A0A0B0B0C0C0C0C0D0D0E0EBB
:100190000F0F101011111212131314141515161736
:1001A0001818191A1B1C1D1D1E1F20202121222278
:1001B0002324252526272828292A2B2C2D2D2E2FB0
:1001C00030303131323233343535363738383939E9
:1001D0003A3B3C3C3D3E3F40424344444546474712
:1001E00048494A4A4B4C4D4E4F5051525354555624
:1001F0005758595A5B5C5E5F60616264646566670C
:10020000686A6B6D6E6F7073737577787A7B7D7EBD
:100210007F808283858788898C8E9091939496982D
:100220009A9C9EA0A2A4A6A8ABAEB1B3B6B8BABB26
:10023000BDBFC1C3C6C9CCCED1D3D6D9DDE0E3E5BD
:10024000E8EBEEF0F2F4F6F9FCFF0000000000002D
:100250000000000000010101010202020303030487
:1002600004050505060607080809090A0A0B0C0C0F
:100270000D0E0F0F10111213131415161718191A4B
:100280001B1C1D1E1F2021222324252627282A2B44
:100290002C2D2E30313233353637383A3B3C3E3F09
:1002A000404243454647494A4C4D4F50515354569E
:1002B00057595A5C5D5F6062636567686A6B6D6E13
:1002C000707173757678797B7C7E80818384868774
:1002D000898A8C8E8F9192949597989A9C9D9FA0D5
:1002E000A2A3A5A6A8A9ABACAEAFB0B2B3B5B6B841
:1002F000B9BABCBDBFC0C1C3C4C5C7C8C9CACCCDCB
:10030000CECFD1D2D3D4D5D7D8D9DADBDCDDDEDF7E
:10031000E0E1E2E3E4E5E6E7E8E9EAEBECECEDEE68
:10032000EFF0F0F1F2F3F3F4F5F5F6F6F7F7F8F98C
:10033000F9FAFAFAFBFBFCFCFCFDFDFDFEFEFEFEFD
:10034000FFFFFFFFFFFFFFFFFFFF10E009E110BD10
:1003500009B908E00AB90EE800BD08955D9BFECF1B
:100360000CB908955F9BFECF0CB10895E8EDF5E15F
:10037000C895002029F05D9BFECF0CB83196F8CFD0
:1003800008950F700A3008F0095F005D0E94AE0109
:1003900008950F9302950E94C1010F910E94C1011F
:1003A0000DE00E94AE010AE00E94AE0108950F9395
:1003B0000FB70F931F932F933F934F935F936F93B9
:1003C0007F93EF93FF930F921F92E0916E00E6FFF1
:1003D00015C03091D5002091D6001091D70030FB88
:1003E000889417952795379516F444EE1427309383
:1003F000D5002093D6001093D70021C0F091710052
:10040000142DF1FD0EC0E1FF0AC060E8F0FD60911F
:10041000CC00161710F01FEF12C010E010C0F0FF54
:100420000EC0632D17FD609517FD1095660F111F07
:10043000F1FF05C0EAE4F2E0E10FF81D1491E0914C
:100440006E00F0917100072DF3FD0EC0E2FF0AC0AF
:1004500060E8F2FD6091CC00061710F00FEF12C0BB
:1004600000E010C0F2FF0EC0662D07FD609507FD8D
:100470000095660F001FF3FF05C0EAE4F2E0E00F0D
:10048000F81D0491E0916E00E0FD1027E3FF00E805
:100490006091700060FD11C06091C3001058160398
:1004A000F0016091C40000580603E00DF11D0093B7
:1004B000CD00F595E7958F0108C0105815950058A7
:1004C0000093CD00059510028001780109191A09E1
:1004D00013F401E010E86091D100409182005FEFD9
:1004E000541B569520E2520F651B08F460E0492D1D
:1004F0005A2D3091D4002091D300421B530B13F49A
:1005000041E050E820916F0023FF02C09A010FC024
:1005100056039001469F210D381D001C08F42395B9
:100520008894220F331F8894220F331F9901020FE2
:10053000131F13F40FEF1FE74091820020916F000B
:1005400023FD4091830014039001049F210D381D69
:10055000001C08F42395920EA31E23F42FEF3FE70F
:10056000922EA32E3A2D292DE091D300F091D400A4
:100570002E1B3F0B13F421E030E8409182002091C4
:100580006F0023FD4091830034039001249F210DCF
:10059000381DE20FF31F13F4EFEFFFE7E093D300F2
:1005A000F093D4000E2F1F2F20916F0023FF03C064
:1005B000E01AF10A8701E0E0F0E0209184002F3F8B
:1005C00049F4E02FF12F08C015950795220F10F47C
:1005D000E00FF11F2223C1F7929AF0589398F5BBD0
:1005E0009298929A939AE5BB9298929AE6ECF0E0F0
:1005F0000191200E0191301E0191401E0191500E7B
:100600000191601E0191701EE0916E00E6FD0C9458
:1006100024030091CD001091CE001030A9F0010309
:1006200090010091C60011273003110B210C311EDF
:10063000411E0091C7003003200C311C411E009167
:10064000C8003003300C411C1F900F90FF91EF91B8
:100650007F916F915F914F913F912F911F910F91DA
:100660000FBF0F9118950F930FB70F930CB15798B9
:1006700078941F930023F2F4102F107F103851F05C
:10068000103941F0103B31F0103E21F010E0109392
:10069000600095C0109360000F7003950093610097
:1006A00010917200112329F0101719F010E0109327
:1006B000600085C010916000103819F0113839F0D1
:1006C0000AC01395109360000093620078C01A95D9
:1006D0001093600010C0103919F0113939F03BC087
:1006E0001395109360000093620069C01A951093EF
:1006F00060000023F9F40091620010916500011779
:1007000019F41FEF1093650010916400011749F46C
:10071000109165001F3F31F0109364001FEF10939C
:1007200065004DC01FEF1093640010E01093970018
:10073000C69A45C000936300109164001093650051
:10074000109162001093640011E0109397001093D1
:100750009800C69834C0103B19F0113B39F016C010
:100760001395109360000093620029C01A951093AE
:10077000600010916200AF93BF93A8EDB0E0A10FAD
:10078000B81D000F0C93BF91AF9119C0103E19F026
:10079000113E39F014C0139510936000009362006D
:1007A0000EC01A951093600010916200110F110F86
:1007B000001F0058109366000093670000C01F914F
:1007C0000F910FBF0F91579A18950F9302E30A9557
:1007D000F1F70F91089527B9369A0895349BFECF0B
:1007E000349A04B115B11695079516950795089595
:1007F000222331F02F93159507952A95E1F72F9134
:100800000895442341F04F93369527951795079502
:100810004A95D1F74F910895442341F04F93000F2B
:10082000111F221F331F4A95D1F74F910895019F41
:1008300080010895EF934427552788279927AA27F1
:10084000BB27CC27DD270FC07695679530F4800F46
:10085000911FA21FB31FC41FD51F000F111F221FFE
:10086000331F441F551FE62FE72B71F70A2F1B2F4D
:100870002C2F3D2FEF910895EE0FF0E0BB96EE0F79
:10088000FF1F059115912591359108956F937F93E1
:10089000E72FF2DF802F912FA22FB32FE72FE395C1
:1008A000EBDF081B190B2A0B3B0B8F939F93AF9326
:1008B000BF93762F60E04F93BDDF4F91BF91AF9113
:1008C0009F918F91080F191F2A1F3B1F7F916F91D6
:1008D000089540E002C07C5043957C30E0F70895D5
:1008E000EE0FFF1FE00FF81D04910895E00FF81DB3
:1008F000EE0FFF1F259134910895069506950695F4
:10090000E5E8F0E0F3DF00271127089560E0702F9D
:10091000703718F0703938F00CC000E010E221E0B8
:10092000E0E0F0E00BC008E011E220E0ECE8FFE6D8
:1009300005C007EB1DE121E0E7E6F2EE30E07ADFEB
:100940000E0F1F1F0895E199FECF2FBB1EBB0DBBDD
:10095000E29AE19A0895E199FECF2FBB1EBBE09A7F
:100960000DB30895F89400913400006804BF04BFEB
:100970000FE518E00DBF1EBF882422243324442431
:100980005524662477249924AA2422273327EE2786
:10099000FF2705E00093C50000E00093CE00009320
:1009A000D100009379000093970000939800009382
:1009B00084000093A0000093A1000093A200009384
:1009C000A4000093A5000093A60000938600009366
:1009D0007E0000937F0000938000009366000093E8
:1009E00067000093D90002E0009381000FEF0093AD
:1009F00068000093690000938200009383000093D5
:100A00006400009365000EE514EB26E70093B40044
:100A10001093B5002093B6000093D5001093D60034
:100A20002093D70000E010E020E00093B70010937F
:100A3000B8002093B9000FEF1FEF2FEF0093BA001B
:100A40001093BB002093BC0027E10093BD001093DE
:100A5000BE002093BF0021EE0093C0001093C100A0
:100A60002093C20000E00093D0001093CF000093C9
:100A70006A000093A7000093AC0000939F000093CE
:100A8000A30000937600009377000093740000E8C1
:100A90000093E80004E50093730004E00093E7008E
:100AA00008E100936E0004E100936F0000E0009302
:100AB000700000E00093710000E800937A0000935A
:100AC0007B0000937C0000937D000093F000009376
:100AD000EE000093EF000093F1000FB720E010E06C
:100AE0003ADF0093C300139536DF0093C4001395DB
:100AF00032DF0093760013952EDF00937700139575
:100B00002ADF00937800139526DF0093D100139518
:100B100022DF0093790013951EDF0093CE0013951A
:100B20001ADF00937500139516DF009373000FBF53
:100B300000E00BBB00E00ABB0FEF08BB00E407BB03
:100B400000E005BB0FEF04BB0EEF02BB0EEF01BBD5
:100B5000C69A929A939800E003BF04E00EBD01E3A9
:100B600003BD0AE005BD0E94A50106E806B900E83C
:100B700009BF7894209186002EDE30DE2091860019
:100B8000C7E8C20FD0E00883239525DE27DEC7E83B
:100B9000C20FD0E0088326E01EDE20DEC7E8C20FC9
:100BA000D0E00883239517DE19DEC7E8C20FD0E036
:100BB000088322E0209386000EDE009187000093D8
:100BC0008F00009188000093900000918D000093A9
:100BD000950000918E00009396000CB51DB5009312
:100BE000990010939A000E94B6010091C3000E94E0
:100BF000C9010091C4000E94C901009176000E94C1
:100C0000C901009177000E94C901009178000E94FB
:100C1000C9010091D1000E94C901009179000E9490
:100C2000C9010091CE000E94C901009175000E9487
:100C3000C901009173000E94C9015D9BFECF00E0D5
:100C400000BD0FE109B900E90AB90CB51DB5209145
:100C5000990030919A00021B130B0A56184108F4B0
:100C60009CC00CB51DB50093990010939A0000E14B
:100C700011E020E130E040E050E0E2B3E06FE02737
:100C8000E2BBA3DDE6B3E0FD312BE1FD322BE2FD5B
:100C9000412BE3FD422BE4FF512B110F220F000FDC
:100CA00061F702B3006F02BB30936B0040936C009E
:100CB00050936D0000916B0010916C0020916E00BC
:100CC00030916F00409170005091710017FB21F935
:100CD00016FB41F915FB26F914FB40F907FB30F927
:100CE00006FB51F905FB50F904FB33F913FB22F91C
:100CF00012FB23F911FB27F910FB25F903FB31F94E
:100D000002FB53F901FB52F900FB34F920936E000A
:100D100030936F00409370005093710000916D000C
:100D2000009372001091690010FF0AC034FF00E0C8
:100D300034FD01E0009368001127109369002DC075
:100D400034FF00E034FD01E010916800011709F460
:100D500024C00093680034FD07C001E00093CF0079
:100D600000E00093D00006C000E00093CF0006E052
:100D70000093D000002700936A0000918700009341
:100D80008F00009188000093900000918D000093E7
:100D9000950000918E00009396000091CF0007FD12
:100DA0004DC0E1994BC000FD14C00091D000063049
:100DB00039F0073041F0083049F01091730026C037
:100DC0001091790023C01091CE0020C010917500C1
:100DD0001DC00091D000003059F0013061F00230A8
:100DE00069F0033071F0043079F01091D1000EC039
:100DF0001091C3000BC01091C40008C01091760080
:100E000005C01091770002C01091780030E03FBB20
:100E10000EBB1DBB1FB7F894E29AE19A1FBF7894EE
:100E2000053031F0093021F003950093D00006C061
:100E300010E01093D0001FEF1093CF00CFDC209173
:100E40008600C7E8C20FD0E008832395277020935F
:100E50008600C1DC30916F0020916A0034FD0C9453
:100E600075070091870020FD0C943F07302F1091EB
:100E70008F00311B0AF43195353018F02160009352
:100E800073000091880021FD0C944F07302F1091C2
:100E90009000311B0AF43195353028F02260009320
:100EA00074000093750000918D0026FD0C9461077D
:100EB000302F10919500311B0AF43195353018F020
:100EC00020640093CE0000918E0027FD0C947107E2
:100ED000302F10919600311B0AF43195353018F0FF
:100EE0002068009379000C94C8070091870020FDCA
:100EF0000C948307302F10918F00311B0AF4319529
:100F0000353030F02160063F08F006EF0093D10045
:100F10000091880021FD0C949607302F10919000CD
:100F2000311B0AF43195353018F0226000937800B7
:100F300000918D0026FD0C94A607302F109195008E
:100F4000311B0AF43195353038F02064DFDC10585D
:100F5000009376001093770000918E0027FD0C948B
:100F6000BA07302F10919600311B0AF431953530B5
:100F700078F020680695069510E4101B123008F4EE
:100F800010E01093C300023008F400E00093C400A6
:100F90000091890000937D0000918A0023FD0C944C
:100FA000DA07302F10919200311B0AF43195353059
:100FB00030F02460E5EAF0E093DC00937C000091DF
:100FC0008B0000937B0000918C0000937A002093AB
:100FD0006A006CB57DB5262F372F00919B001091CC
:100FE0009C00601B710B20939B0030939C006093CE
:100FF0009D0070939E000091730000957EDC6091CF
:101000009D0070919E0016DC3091A8004091A900CF
:101010005091AA005058F0E0E091A700EE23A1F40F
:101020006091BA007091BB008091BC00300F411FED
:10103000521F20F0361747075807C8F0362F472FA2
:10104000582FE1E0F1E013C06091B7007091B80053
:101050008091B900301B410B520B20F063177407CD
:10106000850728F0362F472F582FE0E0F1E0E09376
:10107000A70050583093A8004093A9005093AA00AD
:1010800000E010E020E0E0916F00E278E03849F401
:10109000FF23B1F00091B4001091B5002091B6008B
:1010A0002F770093B7001093B8002093B9000095F4
:1010B000109520950093BA001093BB002093BC00BC
:1010C00000916F000278023829F4FF2361F05091FB
:1010D000B60007C000916F00027019F0550F5FE76E
:1010E000581D5093AB0000916F00007249F00091C1
:1010F00075001091D900011708F4012F00937400B6
:101100000091E7000095F9DB60919D0070919E00D1
:1011100091DB3091AD004091AE005091AF0050583E
:10112000F0E0E091AC00EE23A1F46091C00070917A
:10113000C1008091C200300F411F521F20F03617AE
:1011400047075807C8F0362F472F582FE1E0F1E046
:1011500013C06091BD007091BE008091BF00301B34
:10116000410B520B20F063177407850728F0362FC8
:10117000472F582FE0E0F1E0E093AC005058309357
:10118000AD004093AE005093AF0000E010E020E0CF
:10119000E0917100E07CE03849F4FF23B1F0009168
:1011A000B4001091B5002091B6002F770093BD00D8
:1011B0001093BE002093BF000095109520950093DA
:1011C000C0001093C1002093C20000917100007C08
:1011D000003C29F4FF2361F05091B60007C0009154
:1011E0007100007419F0550F5FE7581D5093B0005F
:1011F00000916F00007249F0009175001091D900C4
:10120000011708F4012F0093B1006091E600560326
:10121000512D50586091700061FF5091E60050933D
:10122000CC0010919F000091EE00113049F0009128
:10123000EF00123029F00091F100143009F038C0AD
:101240005CDB60919D0070919E00F4DA3091A0000B
:101250004091A1005091A20060919F006430C1F0C4
:10126000623049F0300F411F521FE0F43FEF4FEF63
:101270005FEF02E015C0301B410B520B68F060912C
:10128000F000651778F003E033274427562F08C095
:10129000301B410B520B30F430E040E050E000E0F6
:1012A00000939F003093A0004093A1005093A200B0
:1012B0001091A30000917A00113049F000917B0059
:1012C000123029F000917D00143009F038C015DB90
:1012D00060919D0070919E00ADDA3091A400409124
:1012E000A5005091A6006091A3006430C1F0623067
:1012F00049F0300F411F521FE0F43FEF4FEF5FEF17
:1013000002E015C0301B410B520B68F060917C006D
:10131000651778F003E033274427562F08C0301BA9
:10132000410B520B30F430E040E050E000E000931D
:10133000A3003093A4004093A5005093A600009111
:101340009700002331F404E000939F000093A30072
:1013500038C0009198000023A1F100E000939800AC
:10136000902EA02E0093D3000093D4000091810012
:10137000002319F00A950093810001E000939F007B
:101380000093A30000E00093A0000093A10000934D
:10139000A2000093A4000093A5000093A600009172
:1013A0006F0006FF0EC00FEF1FEF2FE70093A8009E
:1013B0001093A9002093AA0001E00093A7000093D6
:1013C000AC0090E060E0709164007F3F11F49CC03D
:1013D0007C507136E8F701C0745F7432E8F37C50DA
:1013E00090917E00A0917F00B091800000918100DB
:1013F000002381F50091790080DA6F937F93622F4B
:10140000732F00E010E020919D0030919E0043E09A
:10141000F8D910DA7F916F91302F412F522F909190
:101420007E00A0917F00B09180006A177B0738F49E
:10143000931BA40BB50B6A177B0750F006C0930FE4
:10144000A41FB51F6A177B0718F490E0A62FB72FCB
:101450006A2F7B2F90937E0060937F0070938000B3
:1014600000916E0005FF7C500091660010916700AE
:1014700025E0BED9202F312F020F131F020F131F9B
:10148000600F711F7093850000916F0000FF0C9436
:10149000620A0091AB0010917400212F169520383C
:1014A00010F01058120F0102800124E0A1D9600F42
:1014B000711F77231AF460E070E004C07D3610F0ED
:1014C00060E07CE66F937F9304DAE0D9A5D91093AE
:1014D000C6002093C7003093C8007F916F910091A0
:1014E00076001091770024E083D9600F711F00917E
:1014F0006E0007FD745FEDD9C9D98ED91093C9006C
:101500002093CA003093CB00E0E0F0E000916F0040
:1015100000FD0C94930A0091AB001091740001033C
:10152000E12DF0E0FF0B0091E80000581091A600BB
:101530000103800120E0220B001FE11FF21F009138
:101540006F00047061F000918500000F00561BEAE7
:101550000102800120E017FD2FEFE10FF21F009143
:10156000780011270E0F1F1F112312F400E002C094
:1015700009F00FEF0695E5E4F0E0B2D900938200A0
:101580000A5008F400E00093830010916E0010717F
:1015900031F400919700079500E0000B05C0009121
:1015A000A200E5EAF0E09CD9009384000091B40029
:1015B0001091B5002091B60027FB30F922FB40F9CD
:1015C00034273695001F111F221F0093B40010937B
:1015D000B5002093B60039CB0D0A0D0A617672531F
:1015E000796E746820322E30202863294157652097
:1015F000323031310D0A2020206275696C6420443C
:10160000656320303220323031312031393A323185
:061610003A35320D0A001C
:00000001FF
