:020000020000FC
:100000000C942D070C942A000C942A000C942A00BE
:100010000C948D020C942A000C942A000C942A0053
:100020000C942A000C942A000C942A000C942A00A8
:100030000C942A000C94FB030C942A000C942A00C4
:100040000C942A000C942A000C942A000C942A0088
:100050000C942A00189519BC0E00669C0F00098AA2
:100060001000CE8511008B90120025AB13008DD6A9
:100070001400C2131600D4631700E3C718001D4113
:100080001A00C5D01B0031781D00010101010101DA
:100090000101010202020202020202020202020342
:1000A0000303030303030404040404040505050512
:1000B000050606060607070708080809090A0A0AC6
:1000C0000B0B0C0C0D0D0E0F0F101111121314153C
:1000D000161718191A1B1C1D1F2021232426282936
:1000E0002B2D2F313436383B3D404346494C4F533E
:1000F000575B5F63676C70757B80868C92989FA658
:10010000ADB5BDC5CED7E1EBF5FFF8C67DBBABB055
:1001100079A6DE9CD193498B4083AD7B8A74D06DE8
:100120007A678261E15B94569551E04C7048424495
:1001300052409C3C1C39D135B632C92F072D6E2A4E
:10014000FB27AC2580237321851FB41DFD1B5F1A7F
:10015000DA186B171116CB14981376126611651006
:10016000720F8E0EB70DED0C2E0C7A0BD00A310AE1
:100170009A090C098708090892072207B90655064B
:10018000F805A0054D05FE04B5046F042E04F00328
:10019000B6037F034B031B03ED02C20299027202F6
:1001A0004E022C020C02EE01D101B7019D01850126
:1001B0006F015A0146013301210111010101F200D1
:1001C000E400D700CB00BF00B400A900A000960057
:1001D0008E0086007E0077007000690063005E007C
:1001E000580053004E004A00450041003E003A00CE
:1001F0003700340031002E002B0029002600240097
:10020000220020001E001C001B0000000001010154
:1002100001010202020203030303030404040405B0
:100220000505050606060607070707080808080962
:100230000909090A0A0A0B0B0B0B0C0C0C0D0D0D0E
:100240000E0E0E0F0F0F10101011111212121313A9
:1002500014141415151616171717181819191A1A31
:100260001B1B1C1C1D1D1E1E1F1F202121222223A3
:10027000232425252627272829292A2B2B2C2D2DF9
:100280002E2F303031323333343536373838393A2F
:100290003B3C3D3E3F3F4041424344454647484941
:1002A0004A4B4C4D4E5051525354555657595A5B28
:1002B0005C5D5F60616264656668696A6C6D6E70E2
:1002C0007173747677787A7B7D7E80828385868869
:1002D0008A8B8D8E9092949597999A9C9EA0A2A4B9
:1002E000A5A7A9ABADAFB1B3B5B7B9BBBDBFC1C3CE
:1002F000C5C7C9CBCED0D2D4D6D9DBDDE0E2E4E7A6
:10030000E9EBEEF0F3F5F7FAFCFFE0E0E0E0E0E027
:10031000E0E0E0E4E8ECF0F4F8FC000101010201A7
:100320000301040106010701080109010A010B018B
:100330000C010E010F011001110112011401150130
:100340001601170119011A011B011D011E011F01D0
:1003500021012201230125012601270129012A016A
:100360002C012D012F0130013201330135013601FD
:10037000380139013B013D013E0140014201430189
:100380004501470149014A014C014E01500152010A
:1003900053015501570159015B015D015F01610185
:1003A00063016501670169016B016D016F017201F4
:1003B0007401760178017B017D017F018201840156
:1003C000860189018B018E019001930195019801AD
:1003D0009A019D01A001A201A501A801AA01AD01F8
:1003E000B001B301B601B901BB01BE01C101C40135
:1003F000C701CB01CE01D101D401D701DA01DE0161
:10040000E101E401E801EB01EE01F201F501F9017E
:10041000FC01FF01FF01FF01FF01FF01FF01FF01DF
:10042000FF014004410442044304440445044604DB
:1004300047044704480449044A044B044C044D044F
:100440004E045004510452045304540455045604F9
:100450005704580459045A045C045D045E045F04A4
:100460006004610463046404650466046804690448
:100470006A046B046D046E046F04710472047304E7
:1004800075047604770479047A047C047D047E0480
:1004900080048104830484048604870489048A0414
:1004A0008C048D048F0490049204940495049704A2
:1004B00099049A049C049D049F04A104A304A40429
:1004C000A604A804AA04AB04AD04AF04B104B304A9
:1004D000B404B604B804BA04BC04BE04C004C20424
:1004E000C404C604C704C904CB04CD04D004D20498
:1004F000D404D604D804DA04DC04DE04E004E20404
:10050000E504E704E904EB04ED04F004F204F40468
:10051000F604F904FB04FD04FF040F930FB70F93D7
:100520001F932F933F934F935F936F937F93EF931B
:10053000FF930F921F92509177007091780075FF92
:1005400015C03091DB002091DC001091DD0030FB04
:10055000889417952795379516F444EE1427309311
:10056000DB002093DC001093DD003AC0142D77FFF0
:100570002CC076FF4091D10076FD4091D00070FFF5
:100580001CC06091CE00E0ECFBE1E10FF61FC895C6
:10059000042F010F102DE0ECFBE1E00FF61FC895D2
:1005A000002710190A09140F0A1D14F410E000E0C6
:1005B000002309F01FEF105813C0141718F01FEF95
:1005C00010580EC010E010580BC0142D70FF07C05B
:1005D0006091CE00E0ECFBE1E10FF61F14911058A2
:1005E0006091CF0070FF60E0072D73FF06C0E0EC64
:1005F000F7E2E00FF61F049105C0E0ECF3E3E00F33
:10060000F61F0491005855FD10270093D200609109
:10061000790060FD11C06091C5001603F001609182
:10062000C60072FF012F0603E00DF11D8F01159525
:100630000795159507950EC06091C5001603112DFD
:100640006091C6000603012D10020093D2008001C4
:10065000000F111F78010819190913F401E010E8BF
:100660006091D700482D592D3091D9002091D800A4
:10067000421B530B13F441E050E82091770024FF14
:1006800002C09A0113C02091DA002223D1F356034D
:100690009001469F210D3A1D001C08F42395889473
:1006A000220F331F8894220F331F9901020F131F4B
:1006B00013F40FEF1FE7409183002091770024FD92
:1006C0004091840014039001049F210D3A1D001CE9
:1006D00008F42395820E931E23F42FEF3FE7822E1A
:1006E000932E392D282DE091D800F091D9002E1BA2
:1006F0003F0B13F421E030E8409183002091770014
:1007000024FD4091840034039001249F210D3A1D63
:10071000E20FF31F13F4EFEFFFE7E093D800F0933D
:10072000D9000E2F1F2F2091770024FF03C0E01A5D
:10073000F10A8701F801209185002F3F29F012036B
:10074000F001029FE10DFA1D20916401243031F483
:10075000000CEE1FFF1F000CEE1FFF1F939AF058B6
:100760009298F5BB9398939A929AE5BB9398939A33
:10077000E8ECF0E00191200E0191301E0191401E45
:100780000191500E0191601E0191701EE091780060
:10079000E5FD22C0E2FF20C0E0917700E1FF10E01C
:1007A000E1FD1091EE001123B9F00091D200010398
:1007B00090010091C80011273003110B210C311E4C
:1007C000411E0091C9003003200C311C411E0091D4
:1007D000CA003003300C411C1F900F90FF91EF9125
:1007E0007F916F915F914F913F912F911F910F9149
:1007F0000FBF0F9118950F930FB70F930CB1579828
:1008000078941F930023F2F4102F107F103851F0CA
:10081000103941F0103B31F0103E21F010E0109300
:100820006000B3C1109360000F70039500936100E6
:1008300010917C00112329F0101719F010E010938B
:100840006000A3C110916000103819F0113839F020
:100850000AC01395109360000093620096C11A9528
:100860001093600010C0103919F0113939F03BC0F5
:100870001395109360000093620087C11A9510933E
:1008800060000023F9F400916200109165000117E7
:1008900019F41FEF1093650010916400011749F4DB
:1008A000109165001F3F31F0109364001FEF10930B
:1008B00065006BC11FEF1093640010E01093990066
:1008C000919A63C1009363001091640010936500D6
:1008D000109162001093640011E01093990010933E
:1008E0009A00919852C1103B19F0113B39F034C174
:1008F0001395109360000093620047C11A951093FE
:10090000600010916200AF93BF93103330F0103449
:1009100030F01035E0F1103608F0D4C088C0AEEDEC
:10092000B0E0A10FBA1D000F0C93F1F01633D1F017
:100930001A33D0F089F01C3360F029F01E33A0F494
:100940000093F80011C0A0916201A260A09362011F
:100950000BC00093F40008C0A0916201A160A093B5
:10096000620102C00093EC0010531770A9E8B0E0D8
:10097000A10FBA1D0C91A1E9B0E0A10FBA1D0C9313
:10098000ABE6B0E0A10FBA1D10E01C93E2C010541A
:10099000183048F11770A091780006FB103011F460
:1009A000A0F91EC0113011F4A1F91AC0123011F4CF
:1009B000A2F916C0133011F4A3F912C0143039F49F
:1009C000A4F9B0916201B360B093620109C015301F
:1009D00011F4A5F905C0163011F4A6F901C0A7F964
:1009E000A0937800B6C01770A091770006FB103076
:1009F00011F4A0F919C0113011F4A1F915C0123089
:100A000011F4A2F911C0133011F4A3F90DC0143080
:100A100011F4A4F909C0153011F4A5F905C0163078
:100A200011F4A6F901C0A7F9A093770092C0105560
:100A3000183020F11770A0917A0006FB103011F4E5
:100A4000A0F919C0113011F4A1F915C0123011F438
:100A5000A2F911C0133011F4A3F90DC0143011F430
:100A6000A4F909C0153011F4A5F905C0163011F428
:100A7000A6F901C0A7F9A0937A006BC01770A091E6
:100A8000790006FB103011F4A0F919C0113011F4EF
:100A9000A1F915C0123011F4A2F911C0133011F4EC
:100AA000A3F90DC0143011F4A4F909C0153011F4E4
:100AB000A5F905C0163011F4A6F901C0A7F9A09355
:100AC000790047C0AEEDB0E0A10FBA1D000F0C9346
:100AD0001E30A1F0163130F169F01A3148F021F0E2
:100AE0001E31B8F514E00DC000931B0115E009C0DC
:100AF00012E007C00093190113E003C00093140132
:100B000016E0A9E8B0E0A10FBA1D0C91A1E9B0E090
:100B1000A10FBA1D0C93ABE6B0E0A10FBA1D10E017
:100B20001C9317C0153139F40F93009162010460D2
:100B3000009362010F91143161F41EEF101B12300B
:100B400008F410E01093C500023008F400E00093B0
:100B5000C600BF91AF9119C0103E19F0113E39F097
:100B600014C0139510936000009362000EC01A9594
:100B70001093600010916200110F110F001F0058B8
:100B8000109366000093670000C01F910F910FBF84
:100B90000F91579A189500E000BD0FE109B900E9DF
:100BA0000AB908950F9302E30A95F1F70F9108959A
:100BB00027B9369A0895349BFECF349A04B115B103
:100BC00016950795169507950895222331F02F93D2
:100BD000159507952A95E1F72F910895442341F043
:100BE0004F9336952795179507954A95D1F74F91CD
:100BF0000895442341F04F93000F111F221F331F0C
:100C00004A95D1F74F910895019F80010895379F2C
:100C1000E001279FA001179FD001079F902DA10DF4
:100C2000B41FC51FDA1D369FA001169F900DA11D90
:100C3000B41FC51FDA1D269FA001069F802D910DB0
:100C4000A41FB51FCA1DDA1D0A2F1B2F2C2F3D2FE5
:100C50000895EE0FF0E0BB96EE0FFF1F0591159182
:100C60002591359108956F937F93E72FF2DF802FC1
:100C7000912FA22FB32FE72FE395EBDF081B190B62
:100C80002A0B3B0B8F939F93AF93BF93762F60E01C
:100C90004F93BDDF4F91BF91AF919F918F91080FFF
:100CA000191F2A1F3B1F7F916F91089540E002C0DA
:100CB0007C5043957C30E0F70895EE0FFF1FE00F66
:100CC000FA1D04910895E00FFA1DEE0FFF1F259104
:100CD000349108950695E5E8F0E0F5DF0027112747
:100CE000089560E0702F703718F0703938F00CC03C
:100CF00000E010E221E0E0E0F0E00BC008E011E2EB
:100D000020E0ECE8FFE605C007EB1DE121E0E7E6A7
:100D1000F2EE30E07CDF0E0F1F1F0895E199FECF49
:100D2000BFB6F8942FBB1EBB0DBBE29AE19ABFBEC3
:100D30000895E199FECFBFB6F8942FBB1EBBE09A91
:100D40000DB3BFBE0895002700936B0000936C00A5
:100D500000936D0000936E0000936F00009370008D
:100D6000009371000093720000918900009391003C
:100D700000918A000093920000918B0000939300F1
:100D800000918C000093940000918D0000939500D9
:100D900000918E000093960000918F0000939700C1
:100DA00000919000009398000895000F000F000F2D
:100DB000000F102F20E0110F221F100F2A1D30E30B
:100DC000303409F43EE03E3109F43CE2B2DFCEEDCE
:100DD000D0E0C30FDA1D088313952A1D33953033F5
:100DE00079F700910A010093770000910B010093BD
:100DF000780000910C010093790000910D0100939F
:100E00007A000091730000937500009174000093C4
:100E100076000091620104600093620194DF0895FE
:100E2000CBE6D0E0C40FDA1D288120FD14C0302F9E
:100E3000C1E9D0E0C40FDA1D1881311B0AF43195E5
:100E4000333038F02160CBE6D0E0C40FDA1D2883C0
:100E500002C010E0089511E00895F8940091340064
:100E6000006804BF04BF0FE518E00DBF1EBFAA2431
:100E70002224332444245524662477248824992466
:100E800005E00093C70000E000935E0100935F015E
:100E9000009360010093610100937C0000937B004C
:100EA0000093EE000093620100930E010093130182
:100EB00000937C000093990000939A0000938500B2
:100EC0000093A2000093A3000093A4000093A60047
:100ED0000093A7000093A8000093870000937F0071
:100EE00000938000009381000093660000936700E8
:100EF0000093DF00009369000093DA0002E00093A2
:100F000082000FEF00936A00009383000093840037
:100F100000936400009365000EE514EB26E7009350
:100F2000B6001093B7002093B8000093DB00109335
:100F3000DC002093DD0000E010E020E00093B90029
:100F40001093BA002093BB000093BF001093C00021
:100F50002093C1000FEF1FEF2FEF0093BC00109301
:100F6000BD002093BE000093C2001093C3002093E5
:100F7000C40000270093AA000093AF000093A100D3
:100F80000093A50000937D0000937E00009368000D
:100F900000E80093C5000093C60000E80093F3004A
:100FA0000FEF0093630101E00093640104E00093FC
:100FB000EC0000E80093ED0000E00093F4000093E3
:100FC000F7000093F8000093FB0000E80093F500A1
:100FD0000093F6000093FA000093F90004EF0093E9
:100FE000790000930C0100E000937A0000930D015A
:100FF00000E00ABB0FEF0BBB00E007BB0FEF08BB25
:101000000FEF04BB00E005BB0EE001BB0CEF02BB21
:10101000919A939A929800E003BF04E00EBD06E314
:1010200003BD0AE005BD0E94CB0506E806B900E84D
:1010300009BF789420918700BBDDC9E8D0E0C20FDA
:10104000DA1DB9DD08832395B3DDC395B4DD0883CC
:101050002395AEDDC395AFDD08832395A9DDC39548
:10106000AADD08832395A4DDC395A5DD0883239518
:101070009FDDC395A0DD088323959ADDC3959BDD95
:101080000883239595DDC39596DD088320E02093A2
:1010900087008EDD23E01EEF4CDE87DE23E01FEFAE
:1010A00048DE00937C000CB51DB500939B001093A7
:1010B0009C000CB51DB520919B0030919C00021B3B
:1010C000130B0A56184108F451C100917B0000230C
:1010D00069F010916001112321F0011711F00068EF
:1010E000012B009360010FE300935F010091600109
:1010F0000023E9F010E2007809F010E800915E01A9
:10110000010F003830F010915F011A9541F0919A6B
:101110000AC010915F011A9511F0919804C0919A3C
:1011200000E00093600100935E0110935F010CB535
:101130001DB500939B0010939C0006B30F7110B374
:10114000107F110F010F30E040E050E000FB47F945
:1011500001FB43F902FB46F903FB41F904FB44F9A7
:1011600005FB36F906FB33F907FB30F930937300C2
:101170004093740050937B0010916A0010FF07C0E9
:101180003093750040937600112710936A002091E8
:101190007700309178004091790050917A00EE27E5
:1011A000FF270091730010917500011791F10093D2
:1011B0007500EE27102710FF06C000FB20F90F93E3
:1011C000C2DD0F91E0E111FF03C001FB44F9EFE044
:1011D00012FF03C002FB22F9EEE013FF03C003FB82
:1011E00023F9EDE014FF03C004FB24F9E8E015FF48
:1011F00003C005FB25F9E7E016FF03C006FB26F94F
:10120000E6E017FF03C007FB27F9E5E0E093610183
:1012100039C00091740010917600011799F1009384
:101220007600EE27102710FF03C000FB40F9ECE02A
:1012300011FF03C001FB31F9EBE012FF03C002FB19
:1012400032F9EAE013FF03C003FB33F9E9E014FFCE
:1012500008C004FB34F9E4E06091620163606093CC
:10126000620115FF03C005FB35F9E3E016FF03C07B
:1012700006FB36F9E2E017FF03C007FB37F9E1E0B0
:10128000E093610110916001112349F420937700EC
:10129000309378004093790050937A0018C0009101
:1012A00061010023A1F0113099F01230A9F014303F
:1012B00041F01F77133069F0153061F0163059F0A6
:1012C00006C00A9523E01EEF29DD6FDD45C04EC044
:1012D00036C040C041C040C0013021F41FEF109320
:1012E000D3003AC01091D3001123B1F10A9523E045
:1012F0001EEF14DD10E01093D3001093D400000F04
:10130000000F000F000F102F20E0110F221F100FF1
:101310002A1D1093D5002093D600009177000093EA
:101320000A010091780000930B010091790000936D
:101330000C0100917A0000930D0105DD0DC00395AD
:10134000013109F401E00A9500937C0023E01FEFCE
:10135000E5DC02C0013001F4919A00E000936001E5
:1013600000935E0100935F0100936101609162014F
:10137000662309F442C060FBC6F400911801002303
:1013800099F03091780034FF08C03FEF3093F600B9
:101390003093F5000093F70007C030E03093F6007B
:1013A0000093F5000093F7006E7F61FBC6F4009197
:1013B0001A01002399F03091780034FF08C03FEF04
:1013C0003093FA003093F9000093FB0007C030E03F
:1013D0003093FA000093F9000093FB006D7F62FBED
:1013E00056F40091F300EDE8F1E06DDC2093630129
:1013F000309364016B7F609362010091D30007FD1D
:1014000028C0E19926C02091D40010E3203120F0BB
:101410001EEF203208F01CE0120FCEEDD0E0C10F1D
:10142000DA1D18810091D5003091D600020F3A1DC7
:101430003FBB0EBB1DBBBFB6F894E29AE19ABFBE9C
:10144000233221F023952093D40003C01FEF109383
:10145000D300B1DB2091870020938800C9E8D0E059
:10146000C20FDA1D08832395277020938700A0DB25
:1014700040918800403031F4D3DC112311F0009307
:101480000E0183C0413031F4CBDC112329F10093EC
:101490000F017BC0463089F4C3DC112321F0009397
:1014A00014010093EC00009114010695043008F03B
:1014B00001C004E00093D10068C0473071F4B0DC93
:1014C000112311F000931501009115010ADC105849
:1014D00000937D0010937E0058C03091770030FD5E
:1014E0000C94980A423031F49BDC112301F10093F3
:1014F00010014BC0433041F493DC1123C1F0009341
:1015000068000093110141C0443031F489DC11239B
:1015100071F00093120139C0453049F481DC112388
:1015200031F00695102F1695010F009313012DC071
:10153000423059F475DC112341F1009318010091F8
:10154000620101600093620120C0433041F468DC15
:101550001123D9F0009319010093F40016C0443010
:1015600059F45EDC112389F000931A0100916201A5
:1015700002600093620109C0453039F451DC112347
:1015800021F000931B010093F80010916300110FEC
:1015900000911201005801036091790061FD012D55
:1015A0000093A9006CB57DB5262F372F00919D00C3
:1015B00010919E00601B710B20939D0030939E0044
:1015C00060939F007093A00000911001009582DB52
:1015D00060919F007091A0001ADB3091AB004091A8
:1015E000AC005091AD005058F0E0E091AA00EE231D
:1015F000A1F46091BC007091BD008091BE00300FDD
:10160000411F521F20F0361747075807C8F0362FE2
:10161000472F582FE1E0F1E013C06091B9007091BD
:10162000BA008091BB00301B410B520B20F06317B6
:101630007407850728F0362F472F582FE0E0F1E098
:10164000E093AA0050583093AB004093AC00509305
:10165000AD0000E010E020E0E0917700E2FF09C07B
:10166000FF23B1F00091B6001091B7002091B800AF
:101670002F770093B9001093BA002093BB00009518
:10168000109520950093BC001093BD002093BE00E0
:101690000091770002FF05C0FF2361F05091B80070
:1016A00007C00091770003FF03C0550F5FE75A1D85
:1016B0005093AE000091790005FF09C0009111011F
:1016C0001091DF00011708F4012F009368000091CA
:1016D0001401069506950095FDDA60919F007091C2
:1016E000A00095DA3091B0004091B1005091B20065
:1016F0005058F0E0E091AF00EE23A1F46091C200F9
:101700007091C3008091C400300F411F521F20F020
:10171000361747075807C8F0362F472F582FE1E0F4
:10172000F1E013C06091BF007091C0008091C100D2
:10173000301B410B520B20F063177407850728F00C
:10174000362F472F582FE0E0F1E0E093AF005058DC
:101750003093B0004093B1005093B2006091ED001F
:101760005603512D50585093D0001091A100009174
:10177000F800113069F00091F900123049F0009141
:10178000FB00143029F06091FA00133039F13AC0AF
:10179000A1DA60919F007091A00039DA3091A20027
:1017A0004091A3005091A4006091A1006430D1F059
:1017B000623049F0300F411F521FF0F43FEF4FEFFE
:1017C0005FEF02E017C0301B410B520B78F06091C5
:1017D000FA00651788F003E00093A100332744273F
:1017E000562F0AC0301B410B520B30F430E040E062
:1017F00050E000E00093A1003093A2004093A300CA
:101800005093A4001091A5000091F400113069F0EC
:101810000091F500123049F00091F700143029F0E2
:101820006091F600133039F13CC054DA60919F00AA
:101830007091A000ECD93091A6004091A700509182
:10184000A8006091A5006430D1F0623049F0300FFB
:10185000411F521F00F53FEF4FEF5FEF02E019C04D
:10186000301B410B520B78F06091F600651798F031
:1018700003E00093A50033274427562F0CC0301BEC
:10188000410B520B40F430E040E050E000E00093A8
:10189000DA000093A5003093A6004093A700509370
:1018A000A80000919900002371F404E01091A100B8
:1018B000112311F00093A1001091A500112381F1D3
:1018C0000093A5002DC000919A00002349F100E08B
:1018D00000939A0000918200002319F00A9500936A
:1018E000820001E00093A1000093A5000093DA00BC
:1018F0000091790006FF14C00FEF1FEF2FE7009350
:10190000AB001093AC002093AD000093B000109397
:10191000B1002093B20001E00093AA000093AF0051
:1019200090E060E0709164007F3F49F490917F0007
:10193000609180007091810009C0B2C07C50713606
:10194000E8F701C0745F7432E8F37C5090917F0037
:10195000A0918000B091810000918200002381F568
:1019600000911301B7D96F937F93622F732F00E01B
:1019700010E020919F003091A00043E02FD947D97B
:101980007F916F91302F412F522F90917F00A09126
:101990008000B09181006A177B0738F4931BA40B79
:1019A000B50B6A177B0750F006C0930FA41FB51F35
:1019B0006A177B0718F490E0A62FB72F6A2F7B2FAA
:1019C00090937F0060938000709381000091790074
:1019D00004FF7C50009166001091670025E0F5D867
:1019E000202F312F020F131F020F131F600F711FC3
:1019F000709386000091770007FF0C941C0D0091F6
:101A0000AE00109168002091770026FF10E0212F92
:101A10001695203810F01058120F0103800124E0B1
:101A2000D4D8600F711F77231AF460E070E004C00F
:101A30007D3610F060E07CE66F937F93972F9D508A
:101A400008F499279695969596959093CE002ED961
:101A50000AD9CFD81093C8002093C9003093CA0088
:101A60007F916F9100917D0010917E0024E0ADD8B0
:101A7000600F711F0091780001FD745F972F9D50DA
:101A800008F499279695969596959093CF000ED940
:101A9000EAD8AFD81093CB002093CC003093CD0080
:101AA000E0E0F0E00091770007FD0C94640D0091F8
:101AB000AE00109168002091770026FF10E001032E
:101AC000E12DF0E0111CFF0B0091A9001091A8007E
:101AD0000103800120E0220B001FE11FF21F009193
:101AE000790007FF0CC000918600000F00561BEA2A
:101AF0000103800120E017FD2FEFE10FF21F00919D
:101B00000F0111270E0F1F1F112312F400E002C056
:101B100009F00FEF0695E5E4F0E0CFD800938300DD
:101B20000A5008F400E00093840010910E01009127
:101B30008300003110F0012F06C0E5E8F1E0BDD8C8
:101B4000011708F0012F209183001FEF121B16953B
:101B500030E1130F011B08F400E00093D70010914F
:101B6000790013FD08C012FD08C000919900079587
:101B700000E0000B07C00FEF05C00091A400E5E0F6
:101B8000F1E09BD8209163012F3F11F0029F012DBE
:101B9000009385000091B6001091B7002091B80025
:101BA00027FB30F922FB40F934273695001F111F1F
:101BB000221F0093B6001093B7002093B80079CA93
:101BC000801211151616161819191A1B1C1D1E1F26
:101BD0002020212223242526272728292A2B2C2DA3
:101BE0002D2E2F30313233343435363738393A3AB6
:101BF0003B3C3D3E3F4041414243444546474748C8
:101C0000494A4B4C4D4D4E4F5051525353545556DB
:101C1000575859595A5B5C5D5E5F606061626364EE
:101C20006566666768696A6B6C6D6D6E6F70717200
:101C300073737475767778797A7A7B7C7D7E7F8012
:101C40008080818283848586868788898A8B8C8D33
:101C50008D8E8F90919293939495969798999A9A46
:101C60009B9C9D9E9FA0A0A1A2A3A4A5A6A7A7A858
:101C7000A9AAABACADADAEAFB0B1B2B3B3B4B5B66B
:101C8000B7B8B9B9BABBBCBDBEBFBFC0C1C2C3C47F
:101C9000C5C6C6C7C8C9CACBCCCCCDCECFD0D1D291
:101CA000D3D3D4D5D6D7D8D9D9DADBDCDDDEDFE0A3
:101CB000E0E1E2E3E4E5E6E7E7E8EAEAEAEBEFEEB3
:101CC000801110151715161919191A1C1C1D1E1F25
:101CD0001F20222223242526262728292A2B2C2CA4
:101CE0002D2E2F3031323333343536373839393AB7
:101CF0003B3C3D3E3F4040414243444546464748C9
:101D0000494A4B4C4C4D4E4F5051525353545556DB
:101D1000575859595A5B5C5D5E5F606061626364ED
:101D20006566666768696A6B6C6D6D6E6F707172FF
:101D300073737475767778797A7A7B7C7D7E7F8011
:101D40008080818283848586868788898A8B8C8D32
:101D50008D8E8F90919293939495969798999A9A45
:101D60009B9C9D9E9FA0A0A1A2A3A4A5A6A7A7A857
:101D7000A9AAABACADADAEAFB0B1B2B3B4B4B5B669
:101D8000B7B8B9BABABBBCBDBEBFC0C0C1C2C3C47C
:101D9000C5C6C7C7C8C9CACBCCCDCDCECFD0D1D28E
:101DA000D3D4D4D5D6D7D8D9DADADBDCDDDEDEE0A1
:101DB000E1E1E2E3E4E4E6E7E7E7EAEBE9EBF0EFB1
:101DC000801C161414141516181A1B1C1D1D1E1E1B
:101DD0001F2021222324252627272829292A2B2CA6
:101DE0002D2E2F30313232333435363738393A3AB6
:101DF0003B3C3D3E3E3F40414243444546464748CA
:101E0000494A4B4C4D4D4E4F5051525253545556DA
:101E1000575859595A5B5C5D5E5F606161626364EB
:101E20006565666768696A6B6C6D6D6E6F707172FF
:101E30007374747576777879797A7B7C7D7E7F8010
:101E40008080818283848586878788898A8B8C8C31
:101E50008D8E8F90919293939495969798999A9B43
:101E60009B9C9D9E9F9FA0A1A2A3A4A5A6A7A7A857
:101E7000A9AAABACADAEAEAFB0B1B2B3B3B4B5B668
:101E8000B7B8B9BABABBBCBDBEBFC0C1C2C2C3C479
:101E9000C5C6C6C7C8C9CACBCCCDCECECFD0D1D28D
:101EA000D3D4D5D6D7D7D8D9D9DADBDCDDDEDFE09D
:101EB000E1E2E2E3E3E4E5E6E8EAEBECECECEAE4B9
:101EC000800A0F1A15131919171A1C1A1C1E1D1E29
:101ED0002120212323232526262829292A2C2C2C9E
:101EE0002E2E2F30313133343435373738393A3AB2
:101EF0003C3C3D3E3F3F41424243444546474748C4
:101F0000494A4B4C4D4D4E505051525353555556D6
:101F10005758595A5B5B5C5D5E5F606161626364E8
:101F20006566666769696A6B6C6C6E6E6F707172FC
:101F300073747475767778797A7A7B7C7D7E7F7F0F
:101F40008081818283848586868788898A8B8C8C30
:101F50008D8E8F90919292949495969797999A9A44
:101F60009B9C9D9E9F9FA0A1A2A3A4A5A5A6A7A858
:101F7000A9AAABABADADAEAFB0B0B2B3B3B4B5B66A
:101F8000B7B8B9B9BABBBCBDBEBEBFC1C1C2C3C47C
:101F9000C4C6C6C7C8C9C9CBCCCCCDCFCFD0D1D28F
:101FA000D2D4D4D4D6D7D7D8DADADBDDDDDDDFE0A2
:101FB000DFE2E3E2E4E6E4E6E9E7E7EDEBE6F1F6AB
:101FC00080011B131519141C161C191C1D1C201D27
:101FD000211F222223252427262828292B2A2D2C9D
:101FE0002E2E3030313232343436363738383A3AB1
:101FF0003C3C3D3E3F4040424243444546464848C3
:102000004A4A4B4C4C4E4E505051525354545656D3
:102010005758595A5A5C5C5D5E5F606062626364E7
:1020200065666668686A6A6B6C6D6E6E70707172F8
:1020300073747476767778797A7A7C7C7D7E7F800B
:102040008080818283848486868788898A8A8C8C32
:102050008D8E8F90909292939495969698989A9A46
:102060009B9C9D9E9EA0A0A1A2A3A4A4A6A6A7A857
:10207000A9AAAAACACADAEAFB0B0B2B2B4B4B5B66A
:10208000B6B8B8BABABBBCBDBEBEC0C0C1C2C3C47C
:10209000C4C6C6C8C8C9CACACCCCCECECFD0D0D28E
:1020A000D2D4D3D6D5D7D8D8DAD9DCDBDDDEDEE1A1
:1020B000DFE3E0E4E3E4E7E4EAE4ECE7EBEDE5FFAB
:1020C000801A01181E11131D1B151A1F1B1A20211F
:1020D0001E1F242321242725252929282A2C2C2B9F
:1020E0002E2F2E2F32323233353535383938393BB1
:1020F0003C3B3D3F3E3F41424243454545474848C2
:10210000494B4B4B4D4E4E4F5051515254555556D5
:102110005858585A5B5B5C5E5E5E606161626464E5
:102120006466676768696A6B6B6D6E6E6F717171FB
:1021300073747475777777797A7A7B7D7D7D7F800C
:10214000808081838383858686878989898B8C8C2F
:102150008D8F8F8F91929293959596979899999A42
:102160009C9C9C9E9F9FA0A2A2A2A4A5A5A6A8A855
:10217000A8AAABABACAEAFAFB0B1B2B2B3B5B5B568
:10218000B7B8B8B9BBBBBBBDBEBEBFC1C2C1C3C57A
:10219000C4C5C7C8C7C8CBCBCBCDCECECED1D2D18C
:1021A000D2D5D4D4D6D8D7D7DBDBD9DCDFDDDCE1A0
:1021B000E2DFE0E6E5E1E6EBE5E3EDEFE2E8FFE6AE
:1021C00080390B000D1D211B13131920211D1A1B13
:1021D0002024242120222628282626282B2D2C2B9B
:1021E0002B2E3132313031343636353537393B3BB1
:1021F0003A3B3C3F40403F404244454545454749C6
:102200004A4A4A4B4D4E4F4F4F50525454545456D5
:10221000585959595A5B5D5E5E5E5F6162636363E4
:102220006466676868686A6C6C6D6D6E6F717172F8
:1022300072737576777777787A7B7C7C7C7E7F800B
:10224000808081828484848586888989898A8B8D2F
:102250008E8E8F8F91929393949496989898999A42
:102260009C9D9D9D9E9FA1A2A2A2A3A5A6A7A7A754
:10227000A8AAACACACACAEB0B1B1B1B2B3B5B6B665
:10228000B6B7B9BBBBBBBBBCBEC0C1C0C0C1C4C577
:10229000C6C5C5C7C9CBCBCACACCCFD0CFCECFD28B
:1022A000D5D5D4D3D5D8DADAD8D8DADEE0DFDCDC9D
:1022B000E0E5E6E3DFE0E7EDEDE5DFE3F3FFF5C7BB
:1022C0008051290E02030C172024221D1815161AFE
:1022D000202426262421202124282B2C2C2B2A299B
:1022E0002A2C2F323333333231323437393B3B3AB5
:1022F0003A3A3B3D3F414242424242434547494AC6
:102300004A4A4A4A4B4C4E505152525152535456DB
:1023100058595A59595A5B5C5E60616161616263E8
:1023200064666869696969696A6C6E6F70717171F8
:10233000717274767778797979797A7C7D7F80800B
:10234000808080818384868787878788898A8C8E2E
:102350008F8F8F8F90919294969797979797989A3F
:102360009C9D9E9F9F9F9FA0A2A4A5A6A7A7A6A74E
:10237000A8AAACADAEAFAEAEAFB0B2B4B5B6B6B65D
:10238000B6B6B7B9BBBDBEBEBEBEBEBFC1C3C5C675
:10239000C6C6C5C5C7C9CCCECFCECDCDCDCED1D486
:1023A000D6D7D6D5D4D4D5D8DCDFE0DFDCDADADC9A
:1023B000E0E6EAEBE8E3DEDCE0E9F4FDFEF2D7AFCD
:1023C0008061442B180B0403060C141C22262827BA
:1023D00025221E1C1B1B1D2124282B2E2F2F2E2CAB
:1023E0002B2A2A2B2C2F31343638393939383737C4
:1023F00037383A3C3E4042444445444444444445D2
:1024000047484A4C4E4F50505050505051525355DF
:1024100057595A5B5C5C5C5C5C5C5D5E60616365EB
:102420006667686868686869696B6C6E70717374F8
:102430007474747475757677797A7C7E7F80808009
:10244000808080808182848687898A8B8B8C8C8C2B
:102450008C8C8D8F9092949597979898989898993E
:102460009A9B9D9FA0A2A3A4A4A4A4A4A4A5A6A74C
:10247000A9ABADAEAFB0B0B0B0B0B0B1B2B4B6B859
:10248000B9BBBCBCBCBCBCBBBCBCBEC0C2C4C6C867
:10249000C9C9C9C8C7C7C7C8CACCCFD1D4D5D6D671
:1024A000D5D4D2D1D1D2D5D8DCDFE3E5E5E4E2DE84
:1024B000DBD9D8DADEE4ECF4FAFDFCF5E8D5BC9F14
:1024C000806D5A49382A1E140C08050506090D129C
:1024D000181D22262A2C2E2F2E2D2C2A2927262580
:1024E00024252627292C2F313437393B3C3D3D3DCF
:1024F0003D3D3C3B3B3B3B3B3C3D3F4143454749EE
:102500004B4D4E4F4F505050504F4F4F4F505052D9
:10251000535456585A5C5E5F6062626363636363E0
:1025200063636364646567686A6B6D6F7172747509
:102530007576767777777777777778797A7B7D7F17
:1025400080818385868788898989898989898A8A1A
:102550008B8B8C8E8F9193959698999B9C9C9D9D2F
:102560009D9D9D9D9D9D9E9EA0A1A2A4A6A8AAAC56
:10257000ADAEB0B0B1B1B1B1B0B0B0B0B1B1B2B355
:10258000B5B7B9BBBDBFC1C3C4C5C5C5C5C5C4C347
:10259000C3C3C3C3C4C5C7C9CCCFD1D4D7D9DADB71
:1025A000DCDBDAD9D7D6D4D3D2D1D2D4D6DADEE3B3
:1025B000E8EEF3F7FAFBFBF8F4ECE2D6C8B7A69323
:1025C0008074685B50453A3128201A140F0C0A08B1
:1025D0000808090B0E1114181C2023272A2E30334B
:1025E000353638383939383837363635343332328B
:1025F00032323333343537393B3D3F414345484A26
:102600004C4D4F50515253535353535353535352B2
:10261000525253535454555658595B5C5E60626431
:102620006667696B6C6D6E6F7070717171717171CD
:102630007171717272727374747677787A7B7D7F40
:10264000808183858688898A8C8C8D8E8E8E8F8FF3
:102650008F8F8F8F8F8F8F90909192939495979962
:102660009A9C9EA0A2A4A5A7A8AAABACACADADAE07
:10267000AEAEADADADADADADADADADAEAFB0B1B378
:10268000B4B6B8BBBDBFC1C3C5C7C9CBCCCDCDCE19
:10269000CECECECDCCCBCACAC9C8C8C7C7C8C8CA97
:1026A000CBCDD0D2D6D9DDE0E4E8ECEFF2F5F7F807
:1026B000F8F8F6F4F1ECE6E0D8CFC6BBB0A5988CFC
:1026C00080776E655D544C443C352F29231E1A16C5
:1026D00013100E0C0B0B0B0B0C0E101214171A1DF3
:1026E000202326292C2F3235373A3C3D3F404243A8
:1026F00043444444444444434342424141414040B2
:102700004040404141424344454648494B4D4F516A
:10271000535557595B5C5E606263656667686969BB
:102720006A6B6B6B6B6B6C6C6B6B6B6B6B6C6C6CF5
:102730006C6D6D6E6F70717273757678797B7D7F5D
:102740008081838587888A8B8D8E8F9091929393D9
:10275000949494949595959595949495959595952F
:1027600096979798999A9B9D9EA0A2A4A5A7A9AB7E
:10277000ADAFB1B3B5B7B8BABBBCBDBEBFBFC0C0CB
:10278000C0C0C0BFBFBFBEBEBDBDBCBCBCBCBCBC6E
:10279000BDBDBEC0C1C3C4C6C9CBCED1D4D7DADD9E
:1027A000E0E3E6E9ECEEF0F2F4F5F5F5F5F4F2F03D
:1027B000EDEAE6E2DDD7D1CBC4BCB4ACA39B9289F1
:1027C00080E6E7E5E4E5E6E5E5E5E5E5E5E5E5E51B
:1027D000E5E5E5E5E5E5E5E5E5E5E5E5E5E5E5E5A9
:1027E000E5E5E5E5E5E5E5E5E5E5E5E5E5E5E5E599
:1027F000E5E5E5E5E5E5E5E5E5E5E5E5E5E5E5E589
:10280000E5E5E5E5E5E5E5E5E5E5E5E5E5E5E5E578
:10281000E5E5E5E5E5E5E5E5E5E5E5E5E5E5E5E568
:10282000E5E5E5E5E5E5E5E5E5E5E5E5E5E5E5E558
:10283000E5E5E5E5E5E5E5E5E5E5E6E5E4E5E7E645
:10284000801A191B1C1B1A1B1B1B1B1B1B1B1B1B76
:102850001B1B1B1B1B1B1B1B1B1B1B1B1B1B1B1BC8
:102860001B1B1B1B1B1B1B1B1B1B1B1B1B1B1B1BB8
:102870001B1B1B1B1B1B1B1B1B1B1B1B1B1B1B1BA8
:102880001B1B1B1B1B1B1B1B1B1B1B1B1B1B1B1B98
:102890001B1B1B1B1B1B1B1B1B1B1B1B1B1B1B1B88
:1028A0001B1B1B1B1B1B1B1B1B1B1B1B1B1B1B1B78
:1028B0001B1B1B1B1B1B1B1B1B1B1A1B1C1B191A6B
:1028C00080E6E8E4E4E6E6E4E5E6E5E4E5E5E5E51A
:1028D000E5E5E5E5E5E5E5E5E5E5E5E5E5E5E5E5A8
:1028E000E5E5E5E5E5E5E5E5E5E5E5E5E5E5E5E598
:1028F000E5E5E5E5E5E5E5E5E5E5E5E5E5E5E5E588
:10290000E5E5E5E5E5E5E5E5E5E5E5E5E5E5E5E577
:10291000E5E5E5E5E5E5E5E5E5E5E5E5E5E5E5E567
:10292000E5E5E5E5E5E5E5E5E5E5E5E5E5E5E5E557
:10293000E5E5E5E5E5E4E5E6E5E4E6E6E4E4E8E644
:10294000801A181C1C1A1A1C1B1A1B1C1B1B1B1B75
:102950001B1B1B1B1B1B1B1B1B1B1B1B1B1B1B1BC7
:102960001B1B1B1B1B1B1B1B1B1B1B1B1B1B1B1BB7
:102970001B1B1B1B1B1B1B1B1B1B1B1B1B1B1B1BA7
:102980001B1B1B1B1B1B1B1B1B1B1B1B1B1B1B1B97
:102990001B1B1B1B1B1B1B1B1B1B1B1B1B1B1B1B87
:1029A0001B1B1B1B1B1B1B1B1B1B1B1B1B1B1B1B77
:1029B0001B1B1B1B1B1C1B1A1B1C1A1A1C1C181A6A
:1029C00080DDE3E5E6E7E7E6E6E5E5E4E4E5E5E521
:1029D000E6E6E6E6E5E5E5E5E5E5E5E5E5E6E5E5A2
:1029E000E5E5E5E5E5E5E5E5E5E5E5E5E5E5E5E597
:1029F000E5E5E5E5E5E5E5E5E5E5E5E5E5E5E5E587
:102A0000E5E5E5E5E5E5E5E5E5E5E5E5E5E5E5E576
:102A1000E5E5E5E5E5E5E5E5E5E5E5E5E5E5E5E566
:102A2000E5E5E5E6E5E5E5E5E5E5E5E5E5E6E6E652
:102A3000E6E5E5E5E4E4E5E5E6E6E7E7E6E5E3DD4A
:102A400080231D1B1A19191A1A1B1B1C1C1B1B1B6C
:102A50001A1A1A1A1B1B1B1B1B1B1B1B1B1A1B1BCB
:102A60001B1B1B1B1B1B1B1B1B1B1B1B1B1B1B1BB6
:102A70001B1B1B1B1B1B1B1B1B1B1B1B1B1B1B1BA6
:102A80001B1B1B1B1B1B1B1B1B1B1B1B1B1B1B1B96
:102A90001B1B1B1B1B1B1B1B1B1B1B1B1B1B1B1B86
:102AA0001B1B1B1A1B1B1B1B1B1B1B1B1B1A1A1A7A
:102AB0001A1B1B1B1C1C1B1B1A1A19191A1B1D2362
:102AC00080EDEAE0E5E8E3E4E7E4E4E6E5E4E6E512
:102AD000E4E5E6E4E5E6E4E5E6E5E5E5E5E4E5E5A7
:102AE000E4E5E5E4E5E5E5E5E5E5E5E5E5E5E5E598
:102AF000E5E5E5E5E5E5E5E5E5E5E5E5E5E5E5E586
:102B0000E5E5E5E5E5E5E5E5E5E5E5E5E5E5E5E575
:102B1000E5E5E5E5E5E5E5E5E5E5E5E5E5E4E5E566
:102B2000E4E5E5E4E5E5E5E5E6E5E4E6E5E4E6E556
:102B3000E4E5E6E4E5E6E4E4E7E4E3E8E5E0EAED3D
:102B4000801316201B181D1C191C1C1A1B1C1A1B79
:102B50001C1B1A1C1B1A1C1B1A1B1B1B1B1C1B1BC4
:102B60001C1B1B1C1B1B1B1B1B1B1B1B1B1B1B1BB3
:102B70001B1B1B1B1B1B1B1B1B1B1B1B1B1B1B1BA5
:102B80001B1B1B1B1B1B1B1B1B1B1B1B1B1B1B1B95
:102B90001B1B1B1B1B1B1B1B1B1B1B1B1B1C1B1B84
:102BA0001C1B1B1C1B1B1B1B1A1B1C1A1B1C1A1B74
:102BB0001C1B1A1C1B1A1C1C191C1D181B2016136D
:102BC00080F5DFE6E7E2E8E1E8E3E5E5E4E7E3E610
:102BD000E4E5E5E4E6E4E6E4E5E5E4E6E4E6E4E5A8
:102BE000E5E5E5E4E6E4E5E5E5E5E4E6E4E5E5E597
:102BF000E5E4E5E4E5E5E5E5E4E5E4E5E5E5E5E48A
:102C0000E5E4E5E5E5E5E4E5E4E5E5E5E5E4E5E479
:102C1000E5E5E5E5E4E6E4E5E5E5E5E4E6E4E5E566
:102C2000E5E5E4E6E4E6E4E5E5E4E6E4E6E4E5E556
:102C3000E4E6E3E7E4E5E5E3E8E1E8E2E7E6DFF53B
:102C4000800B211A191E181F181D1B1B1C191D1A79
:102C50001C1B1B1C1A1C1A1C1B1B1C1A1C1A1C1BC1
:102C60001B1B1B1C1A1C1B1B1B1B1C1A1C1B1B1BB2
:102C70001B1C1B1C1B1B1B1B1C1B1C1B1B1B1B1C9F
:102C80001B1C1B1B1B1B1C1B1C1B1B1B1B1C1B1C8F
:102C90001B1B1B1B1C1A1C1B1B1B1B1C1A1C1B1B82
:102CA0001B1B1C1A1C1A1C1B1B1C1A1C1A1C1B1B72
:102CB0001C1A1D191C1B1B1D181F181E191A210B6D
:102CC00080DEF6E2DDE9E9E1E3E9E6E2E5E8E4E316
:102CD000E7E6E3E4E7E5E3E5E7E4E4E6E6E4E5E6A2
:102CE000E5E4E5E6E4E4E6E6E4E5E6E5E4E5E6E495
:102CF000E4E6E5E4E5E6E5E4E5E6E4E4E6E5E4E586
:102D0000E6E5E4E5E6E4E4E6E5E4E5E6E5E4E5E673
:102D1000E4E4E6E5E4E5E6E5E4E6E6E4E4E6E5E465
:102D2000E5E6E5E4E6E6E4E4E7E5E3E5E7E4E3E653
:102D3000E7E3E4E8E5E2E6E9E3E1E9E9DDE2F6DE3E
:102D400080220A1E2317171F1D171A1E1B181C1D71
:102D5000191A1D1C191B1D1B191C1C1A1A1C1B1AC5
:102D60001B1C1B1A1C1C1A1A1C1B1A1B1C1B1A1CB2
:102D70001C1A1B1C1B1A1B1C1B1A1C1C1A1B1C1BA1
:102D80001A1B1C1B1A1C1C1A1B1C1B1A1B1C1B1A93
:102D90001C1C1A1B1C1B1A1B1C1A1A1C1C1A1B1C81
:102DA0001B1A1B1C1A1A1C1C191B1D1B191C1D1A73
:102DB000191D1C181B1E1A171D1F1717231E0A2268
:102DC00080C1ECF7EDDFDBE2EAECE7E1E0E4E9E922
:102DD000E5E2E2E5E8E8E5E3E3E6E8E7E4E3E4E6A4
:102DE000E7E6E4E3E4E6E7E6E4E3E5E6E7E5E4E492
:102DF000E5E7E6E5E4E4E5E7E6E5E4E4E6E7E6E47E
:102E0000E4E4E6E7E6E4E4E5E6E7E5E4E4E5E6E76E
:102E1000E5E4E4E5E7E6E5E3E4E6E7E6E4E3E4E663
:102E2000E7E6E4E3E4E7E8E6E3E3E5E8E8E5E2E251
:102E3000E5E9E9E4E0E1E7ECEAE2DBDFEDF7ECC14C
:102E4000803F14091321251E1614191F201C171763
:102E50001B1E1E1B18181B1D1D1A18191C1D1C1AC1
:102E6000191A1C1D1C1A191A1C1D1B1A191B1C1CB3
:102E70001B191A1B1C1C1B191A1B1C1C1A191A1CA7
:102E80001C1C1A191A1C1C1B1A191B1C1C1B1A1996
:102E90001B1C1C1B191A1B1D1C1A191A1C1D1C1A81
:102EA000191A1C1D1C19181A1D1D1B18181B1E1E73
:102EB0001B17171C201F1914161E25211309143F58
:102EC00080ABD0E9F6F7F0E7DFDBDDE2E8EBECEA38
:102ED000E6E2E0E1E3E7E9EAE9E6E3E2E2E4E6E8A4
:102EE000E9E8E6E4E3E3E4E6E7E8E8E6E4E3E3E48C
:102EF000E5E7E8E8E6E5E3E3E4E5E7E8E8E7E5E475
:102F0000E3E4E5E7E8E8E7E5E4E3E3E5E6E8E8E766
:102F1000E5E4E3E3E4E6E8E8E7E6E4E3E3E4E6E85F
:102F2000E9E8E6E4E2E2E3E6E9EAE9E7E3E1E0E250
:102F3000E6EAECEBE8E2DDDBDFE7F0F7F6E9D0AB61
:102F4000805530170A0910192125231E181514164B
:102F50001A1E201F1D191716171A1D1E1E1C1A18BF
:102F600017181A1C1D1D1C1A1918181A1C1D1D1CB7
:102F70001B1918181A1B1D1D1C1B191818191B1CAE
:102F80001D1C1B191818191B1C1D1D1B1A1818199C
:102F90001B1C1D1D1C1A1818191A1C1D1D1C1A1883
:102FA00017181A1C1E1E1D1A171617191D1F201E72
:102FB0001A161415181E2325211910090A17305541
:102FC000809CB7CEE0EEF6F8F7F2ECE6E1DDDCDC73
:102FD000DFE2E6E9ECEDEDEBE9E6E3E1E0E0E2E398
:102FE000E6E8E9EAEAEAE8E6E4E3E2E2E2E4E5E781
:102FF000E9E9EAE9E8E6E5E3E2E2E3E4E5E7E8E96E
:10300000E9E9E8E7E5E4E3E2E2E3E5E6E8E9EAE95D
:10301000E9E7E5E4E2E2E2E3E4E6E8EAEAEAE9E84D
:10302000E6E3E2E0E0E1E3E6E9EBEDEDECE9E6E240
:10303000DFDCDCDDE1E6ECF2F7F8F6EEE0CEB79CA3
:103040008064493220120A08090E141A1F2324240E
:10305000211E1A1714131315171A1D1F20201E1DC9
:103060001A1817161616181A1C1D1E1E1E1C1B19C0
:1030700017171617181A1B1D1E1E1D1C1B191817B3
:10308000171718191B1C1D1E1E1D1B1A18171617A3
:1030900017191B1C1E1E1E1D1C1A18161616171893
:1030A0001A1D1E20201F1D1A1715131314171A1E80
:1030B000212424231F1A140E09080A1220324964FD
:1030C00080909FAFBDCAD6E0E8EFF4F7F9FAF9F7C0
:1030D000F4F1EDEAE6E3E1DEDDDCDCDDDEDFE1E4B8
:1030E000E6E8EAECEDEEEFEFEEEDECEAE9E7E5E33A
:1030F000E2E1E0E0E0E1E2E3E4E6E7E9EAECEDED7D
:10310000EDEDEDECEAE9E7E6E4E3E2E1E0E0E0E161
:10311000E2E3E5E7E9EAECEDEEEFEFEEEDECEAE80D
:10312000E6E4E1DFDEDDDCDCDDDEE1E3E6EAEDF175
:10313000F4F7F9FAF9F7F4EFE8E0D6CABDAF9F90DB
:103140008070615143362A2018110C0907060709BF
:103150000C0F13161A1D1F222324242322211F1CA7
:103160001A181614131211111213141617191B1D05
:103170001E1F2020201F1E1D1C1A191716141313A2
:10318000131313141617191A1C1D1E1F2020201F9D
:103190001E1D1B19171614131211111213141618D1
:1031A0001A1C1F212223242423221F1D1A16130F49
:1031B0000C09070607090C1118202A3643516170C3
:1031C0008089939DA6AFB8C0C8D0D7DDE3E8EDF104
:1031D000F4F7F9FBFCFCFCFBFAF9F8F6F4F1EFED7F
:1031E000EAE8E6E4E2E0DFDEDDDCDCDCDCDDDDDEDF
:1031F000E0E1E2E4E6E7E9EBECEEEFF0F1F2F3F325
:10320000F3F3F3F2F1F0EFEEECEBE9E7E6E4E2E101
:10321000E0DEDDDDDCDCDCDCDDDEDFE0E2E4E6E8B8
:10322000EAEDEFF1F4F6F8F9FAFBFCFCFCFBF9F738
:10323000F4F1EDE8E3DDD7D0C8C0B8AFA69D93891F
:1032400080776D635A514840383029231D18130F79
:103250000C090705040404050607080A0C0F1113DE
:1032600016181A1C1E20212223242424242323225E
:10327000201F1E1C1A191715141211100F0E0D0DF8
:103280000D0D0D0E0F101112141517191A1C1E1FFB
:103290002022232324242424232221201E1C1A1824
:1032A0001613110F0C0A0807060504040405070984
:1032B0000C0F13181D232930384048515A636D777D
:1032C00080868D939AA0A7ADB3B9BFC4CACFD4D915
:1032D000DDE1E5E9EDF0F2F5F7F9FBFCFEFEFFFFBD
:1032E000FFFFFFFFFEFDFCFBF9F8F6F5F3F1EFED54
:1032F000ECEAE8E6E5E3E2E0DFDEDDDCDBDBDADAC0
:10330000DADADADBDBDCDDDEDFE0E2E3E5E6E8EAC1
:10331000ECEDEFF1F3F5F6F8F9FBFCFDFEFFFFFF36
:10332000FFFFFFFEFEFCFBF9F7F5F2F0EDE9E5E14A
:10333000DDD9D4CFCAC4BFB9B3ADA7A09A938D8647
:10334000807A736D666059534D47413C36312C2766
:10335000231F1B1713100E0B09070504020201019E
:10336000000101010203040507080A0B0D0F1113E8
:103370001416181A1B1D1E2021222324252526265B
:10338000262626252524232221201E1D1B1A181639
:103390001413110F0D0B0A080705040302010101A4
:1033A0000001010202040507090B0E1013171B1F71
:1033B00023272C31363C41474D535960666D737A53
:1033C000807E7C7A78767472706E6C6A68666462ED
:1033D000605E5C5A58565452504E4C4A48464442DD
:1033E000403E3C3A38363432302E2C2A28262422CD
:1033F000201E1C1A18161412100E0C0A08060402BD
:1034000000020406080A0C0E10121416181A1C1ECC
:1034100020222426282A2C2E30323436383A3C3EBC
:1034200040424446484A4C4E50525456585A5C5EAC
:1034300060626466686A6C6E70727476787A7C7E9C
:1034400080828486888A8C8E90929496989A9C9E8C
:10345000A0A2A4A6A8AAACAEB0B2B4B6B8BABCBE7C
:10346000C0C2C4C6C8CACCCED0D2D4D6D8DADCDE6C
:10347000E0E2E4E6E8EAECEEF0F2F4F6F8FAFCFE5C
:10348000FFFEFCFAF8F6F4F2F0EEECEAE8E6E4E22D
:10349000E0DEDCDAD8D6D4D2D0CECCCAC8C6C4C21C
:1034A000C0BEBCBAB8B6B4B2B0AEACAAA8A6A4A20C
:1034B000A09E9C9A98969492908E8C8A88868482FC
:1034C000807E7C7A78767472706E6C6A68666462EC
:1034D000605E5C5A58565452504E4C4A48464442DC
:1034E000403E3C3A38363432302E2C2A28262422CC
:1034F000201E1C1A18161412100E0C0A08060402BC
:1035000001020406080A0C0E10121416181A1C1ECA
:1035100020222426282A2C2E30323436383A3C3EBB
:1035200040424446484A4C4E50525456585A5C5EAB
:1035300060626466686A6C6E70727476787A7C7E9B
:1035400080828486888A8C8E90929496989A9C9E8B
:10355000A0A2A4A6A8AAACAEB0B2B4B6B8BABCBE7B
:10356000C0C2C4C6C8CACCCED0D2D4D6D8DADCDE6B
:10357000E0E2E4E6E8EAECEEF0F2F4F6F8FAFCFE5B
:10358000FFFEFCFAF8F6F4F2F0EEECEAE8E6E4E22C
:10359000E0DEDCDAD8D6D4D2D0CECCCAC8C6C4C21B
:1035A000C0BEBCBAB8B6B4B2B0AEACAAA8A6A4A20B
:1035B000A09E9C9A98969492908E8C8A88868482FB
:1035C000807E7C7A78767472706E6C6A68666462EB
:1035D000605E5C5A58565452504E4C4A48464442DB
:1035E000403E3C3A38363432302E2C2A28262422CB
:1035F000201E1C1A18161412100E0C0A08060402BB
:1036000001020406080A0C0E10121416181A1C1EC9
:1036100020222426282A2C2E30323436383A3C3EBA
:1036200040424446484A4C4E50525456585A5C5EAA
:1036300060626466686A6C6E70727476787A7C7E9A
:1036400080828486888A8C8E90929496989A9C9E8A
:10365000A0A2A4A6A8AAACAEB0B2B4B6B8BABCBE7A
:10366000C0C2C4C6C8CACCCED0D2D4D6D8DADCDE6A
:10367000E0E2E4E6E8EAECEEF0F2F4F6F8FAFCFE5A
:10368000FFFEFCFAF8F6F4F2F0EEECEAE8E6E4E22B
:10369000E0DEDCDAD8D6D4D2D0CECCCAC8C6C4C21A
:1036A000C0BEBCBAB8B6B4B2B0AEACAAA8A6A4A20A
:1036B000A09E9C9A98969492908E8C8A88868482FA
:1036C000807E7C7A78767472706E6C6A68666462EA
:1036D000605E5C5A58565452504E4C4A48464442DA
:1036E000403E3C3A38363432302E2C2A28262422CA
:1036F000201E1C1A18161412100E0C0A08060402BA
:1037000001020406080A0C0E10121416181A1C1EC8
:1037100020222426282A2C2E30323436383A3C3EB9
:1037200040424446484A4C4E50525456585A5C5EA9
:1037300060626466686A6C6E70727476787A7C7E99
:1037400080828486888A8C8E90929496989A9C9E89
:10375000A0A2A4A6A8AAACAEB0B2B4B6B8BABCBE79
:10376000C0C2C4C6C8CACCCED0D2D4D6D8DADCDE69
:10377000E0E2E4E6E8EAECEEF0F2F4F6F8FAFCFE59
:10378000FFFEFCFAF8F6F4F2F0EEECEAE8E6E4E22A
:10379000E0DEDCDAD8D6D4D2D0CECCCAC8C6C4C219
:1037A000C0BEBCBAB8B6B4B2B0AEACAAA8A6A4A209
:1037B000A09E9C9A98969492908E8C8A88868482F9
:1037C000807E7D7A78767472706E6C6A68666462E8
:1037D000605E5C5A58565452504E4C4A48464442D9
:1037E000403E3C3A38363432302E2C2A28262422C9
:1037F000201E1C1A18161412100E0C0A08060402B9
:1038000001020406080A0C0E10121416181A1C1EC7
:1038100020222426282A2C2E30323436383A3C3EB8
:1038200040424446484A4C4E50525456585A5C5EA8
:1038300060626466686A6C6E70727476787A7D7E97
:1038400080828386888A8C8E90929496989A9C9E89
:10385000A0A2A4A6A8AAACAEB0B2B4B6B8BABCBE78
:10386000C0C2C4C6C8CACCCED0D2D4D6D8DADCDE68
:10387000E0E2E4E6E8EAECEEF0F2F4F6F8FAFCFE58
:10388000FFFEFCFAF8F6F4F2F0EEECEAE8E6E4E229
:10389000E0DEDCDAD8D6D4D2D0CECCCAC8C6C4C218
:1038A000C0BEBCBAB8B6B4B2B0AEACAAA8A6A4A208
:1038B000A09E9C9A98969492908E8C8A88868382F9
:1038C000807E7D7B78767572706E6C6A68666462E5
:1038D000605E5C5A58565452504E4C4A48464442D8
:1038E000403E3C3A38363432302E2C2A28262422C8
:1038F000201E1C1A18161412100E0C0A08070402B7
:1039000001020407080A0C0E10121416181A1C1EC5
:1039100020222426282A2C2E30323436383A3C3EB7
:1039200040424446484A4C4E50525456585A5C5EA7
:1039300060626466686A6C6E70727576787B7D7E94
:1039400080828385888A8B8E90929496989A9C9E8A
:10395000A0A2A4A6A8AAACAEB0B2B4B6B8BABCBE77
:10396000C0C2C4C6C8CACCCED0D2D4D6D8DADCDE67
:10397000E0E2E4E6E8EAECEEF0F2F4F6F8F9FCFE58
:10398000FFFEFCF9F8F6F4F2F0EEECEAE8E6E4E229
:10399000E0DEDCDAD8D6D4D2D0CECCCAC8C6C4C217
:1039A000C0BEBCBAB8B6B4B2B0AEACAAA8A6A4A207
:1039B000A09E9C9A98969492908E8B8A88858382FA
:1039C000807F7D7A78767473716E6C6A68676462E2
:1039D000605E5C5B58565452504E4C4A48464442D6
:1039E000403E3C3A38363432302E2C2A28262422C7
:1039F000211E1C1A18171512100E0C0B09060402B2
:103A000002020406090B0C0E10121517181A1C1EC0
:103A100021222426282A2C2E30323436383A3C3EB5
:103A200040424446484A4C4E50525456585B5C5EA5
:103A300060626467686A6C6E71737476787A7D7F91
:103A400080818386888A8C8D8F92949698999C9E8B
:103A5000A0A2A4A5A8AAACAEB0B2B4B6B8BABCBE77
:103A6000C0C2C4C6C8CACCCED0D2D4D6D8DADCDE66
:103A7000DFE2E4E6E8E9EBEEF0F2F4F5F7FAFCFE5B
:103A8000FEFEFCFAF7F5F4F2F0EEEBE9E8E6E4E22C
:103A9000DFDEDCDAD8D6D4D2D0CECCCAC8C6C4C217
:103AA000C0BEBCBAB8B6B4B2B0AEACAAA8A5A4A207
:103AB000A09E9C99989694928F8D8C8A88868381FB
:103AC000807F7D7B79767472706E6D6B69676462DE
:103AD000605E5C5B59575552504E4C4A49474543CE
:103AE000403E3C3A38363533312E2C2A28262423C2
:103AF000211F1C1A18161413110F0D0A08060403AF
:103B000002030406080A0D0F11131416181A1C1FBD
:103B100021232426282A2C2E31333536383A3C3EB0
:103B200040434547494A4C4E50525557595B5C5E9D
:103B300060626467696B6D6E70727476797B7D7F8D
:103B400080818385878A8C8E9092939597999C9E8D
:103B5000A0A2A4A5A7A9ABAEB0B2B4B6B7B9BBBD7D
:103B6000C0C2C4C6C8CACBCDCFD2D4D6D8DADCDD69
:103B7000DFE1E4E6E8EAECEDEFF1F3F6F8FAFCFD5C
:103B8000FEFDFCFAF8F6F3F1EFEDECEAE8E6E4E12D
:103B9000DFDDDCDAD8D6D4D2CFCDCBCAC8C6C4C21A
:103BA000C0BDBBB9B7B6B4B2B0AEABA9A7A5A4A20D
:103BB000A09E9C9997959392908E8C8A87858381FD
:103BC000807E7C7A78767472716F6D6B69676462DF
:103BD000605E5C5A58565553514F4D4B48464442CF
:103BE000403E3C3A39373533312F2C2A28262422BF
:103BF000201E1D1B19171513100E0C0907060404AF
:103C00000304040607090C0E10131517191B1D1EBB
:103C100020222426282A2C2F31333537393A3C3EAE
:103C200040424446484B4D4F51535556585A5C5E9E
:103C300060626467696B6D6F71727476787A7C7E8E
:103C400080828486888A8C8E8F91939597999C9E8A
:103C5000A0A2A4A6A8AAABADAFB1B3B5B8BABCBE7A
:103C6000C0C2C4C6C7C9CBCDCFD1D4D6D8DADCDE6A
:103C7000E0E2E3E5E7E9EBEDF0F2F4F7F9FAFCFC5A
:103C8000FDFCFCFAF9F7F4F2F0EDEBE9E7E5E3E22D
:103C9000E0DEDCDAD8D6D4D1CFCDCBC9C7C6C4C21A
:103CA000C0BEBCBAB8B5B3B1AFADABAAA8A6A4A20A
:103CB000A09E9C99979593918F8E8C8A88868482FA
:103CC000807E7C7A78767472706E6C6A68676563E1
:103CD000615F5D5B59575553514E4C4A48464442CB
:103CE000403E3C3A38363533312F2D2B29272523BA
:103CF000211F1C1A181513110F0D0B0908070606B2
:103D00000606060708090B0D0F111315181A1C1FBC
:103D100021232527292B2D2F31333536383A3C3EA8
:103D200040424446484A4C4E51535557595B5D5F9B
:103D300061636567686A6C6E70727476787A7C7E8F
:103D400080828486888A8C8E9092949698999B9D86
:103D50009FA1A3A5A7A9ABADAFB2B4B6B8BABCBE7C
:103D6000C0C2C4C6C8CACBCDCFD1D3D5D7D9DBDD6D
:103D7000DFE1E4E6E8EBEDEFF1F3F5F7F8F9FAFA55
:103D8000FAFAFAF9F8F7F5F3F1EFEDEBE8E6E4E12A
:103D9000DFDDDBD9D7D5D3D1CFCDCBCAC8C6C4C21E
:103DA000C0BEBCBAB8B6B4B2AFADABA9A7A5A3A10B
:103DB0009F9D9B9998969492908E8C8A88868482F7
:103DC000807E7C7A787673716F6D6B6967656361ED
:103DD000605E5C5A5857555351504E4C4A484644C1
:103DE00042403E3C3A373533302E2C2927252220BD
:103DF0001E1C1917151412100F0D0C0B0A0A0909B5
:103E00000909090A0A0B0C0D0F1012141517191CB9
:103E10001E20222527292C2E303335373A3C3E40B0
:103E2000424446484A4C4E5051535557585A5C5E8E
:103E30006061636567696B6D6F717376787A7C7E9C
:103E400080828486888A8D8F91939597999B9D9F78
:103E5000A0A2A4A6A8A9ABADAFB0B2B4B6B8BABC84
:103E6000BEC0C2C4C6C9CBCDD0D2D4D7D9DBDEE068
:103E7000E2E4E7E9EBECEEF0F1F3F4F5F6F6F7F750
:103E8000F7F7F7F6F6F5F4F3F1F0EEECEBE9E7E42B
:103E9000E2E0DEDBD9D7D4D2D0CDCBC9C6C4C2C014
:103EA000BEBCBAB8B6B4B2B0AFADABA9A8A6A4A216
:103EB000A09F9D9B99979593918F8D8A88868482E8
:103EC000807F7D7B7A78767473716F6D6B696765BF
:103ED00063615F5D5B59575452504D4B49464442B4
:103EE0003F3D3A383633312F2C2A28262422201EF3
:103EF0001C1A19171614131211100F0F0E0E0D0D98
:103F00000D0D0D0E0E0F0F10111213141617191A96
:103F10001C1E20222426282A2C2F313336383A3DE5
:103F20003F424446494B4D50525457595B5D5F6187
:103F3000636567696B6D6F71737476787A7B7D7F6B
:103F40008081838586888A8C8D8F91939597999BA4
:103F50009D9FA1A3A5A7A9ACAEB0B3B5B7BABCBE8F
:103F6000C1C3C6C8CACDCFD1D4D6D8DADCDEE0E230
:103F7000E4E6E7E9EAECEDEEEFF0F1F1F2F2F3F36B
:103F8000F3F3F3F2F2F1F1F0EFEEEDECEAE9E7E64C
:103F9000E4E2E0DEDCDAD8D6D4D1CFCDCAC8C6C3DD
:103FA000C1BEBCBAB7B5B3B0AEACA9A7A5A3A19F1B
:103FB0009D9B99979593918F8D8C8A888685838117
:00000001FF
